{"abi":[{"type":"constructor","inputs":[{"name":"token_","type":"address","internalType":"contract IVotes"},{"name":"timelock_","type":"address","internalType":"contract TimelockController"}],"stateMutability":"nonpayable"},{"type":"receive","stateMutability":"payable"},{"type":"function","name":"BALLOT_TYPEHASH","inputs":[],"outputs":[{"name":"","type":"bytes32","internalType":"bytes32"}],"stateMutability":"view"},{"type":"function","name":"CLOCK_MODE","inputs":[],"outputs":[{"name":"","type":"string","internalType":"string"}],"stateMutability":"view"},{"type":"function","name":"COUNTING_MODE","inputs":[],"outputs":[{"name":"","type":"string","internalType":"string"}],"stateMutability":"pure"},{"type":"function","name":"EXTENDED_BALLOT_TYPEHASH","inputs":[],"outputs":[{"name":"","type":"bytes32","internalType":"bytes32"}],"stateMutability":"view"},{"type":"function","name":"cancel","inputs":[{"name":"targets","type":"address[]","internalType":"address[]"},{"name":"values","type":"uint256[]","internalType":"uint256[]"},{"name":"calldatas","type":"bytes[]","internalType":"bytes[]"},{"name":"descriptionHash","type":"bytes32","internalType":"bytes32"}],"outputs":[{"name":"","type":"uint256","internalType":"uint256"}],"stateMutability":"nonpayable"},{"type":"function","name":"castVote","inputs":[{"name":"proposalId","type":"uint256","internalType":"uint256"},{"name":"support","type":"uint8","internalType":"uint8"}],"outputs":[{"name":"","type":"uint256","internalType":"uint256"}],"stateMutability":"nonpayable"},{"type":"function","name":"castVoteBySig","inputs":[{"name":"proposalId","type":"uint256","internalType":"uint256"},{"name":"support","type":"uint8","internalType":"uint8"},{"name":"voter","type":"address","internalType":"address"},{"name":"signature","type":"bytes","internalType":"bytes"}],"outputs":[{"name":"","type":"uint256","internalType":"uint256"}],"stateMutability":"nonpayable"},{"type":"function","name":"castVoteWithReason","inputs":[{"name":"proposalId","type":"uint256","internalType":"uint256"},{"name":"support","type":"uint8","internalType":"uint8"},{"name":"reason","type":"string","internalType":"string"}],"outputs":[{"name":"","type":"uint256","internalType":"uint256"}],"stateMutability":"nonpayable"},{"type":"function","name":"castVoteWithReasonAndParams","inputs":[{"name":"proposalId","type":"uint256","internalType":"uint256"},{"name":"support","type":"uint8","internalType":"uint8"},{"name":"reason","type":"string","internalType":"string"},{"name":"params","type":"bytes","internalType":"bytes"}],"outputs":[{"name":"","type":"uint256","internalType":"uint256"}],"stateMutability":"nonpayable"},{"type":"function","name":"castVoteWithReasonAndParamsBySig","inputs":[{"name":"proposalId","type":"uint256","internalType":"uint256"},{"name":"support","type":"uint8","internalType":"uint8"},{"name":"voter","type":"address","internalType":"address"},{"name":"reason","type":"string","internalType":"string"},{"name":"params","type":"bytes","internalType":"bytes"},{"name":"signature","type":"bytes","internalType":"bytes"}],"outputs":[{"name":"","type":"uint256","internalType":"uint256"}],"stateMutability":"nonpayable"},{"type":"function","name":"clock","inputs":[],"outputs":[{"name":"","type":"uint48","internalType":"uint48"}],"stateMutability":"view"},{"type":"function","name":"eip712Domain","inputs":[],"outputs":[{"name":"fields","type":"bytes1","internalType":"bytes1"},{"name":"name","type":"string","internalType":"string"},{"name":"version","type":"string","internalType":"string"},{"name":"chainId","type":"uint256","internalType":"uint256"},{"name":"verifyingContract","type":"address","internalType":"address"},{"name":"salt","type":"bytes32","internalType":"bytes32"},{"name":"extensions","type":"uint256[]","internalType":"uint256[]"}],"stateMutability":"view"},{"type":"function","name":"execute","inputs":[{"name":"targets","type":"address[]","internalType":"address[]"},{"name":"values","type":"uint256[]","internalType":"uint256[]"},{"name":"calldatas","type":"bytes[]","internalType":"bytes[]"},{"name":"descriptionHash","type":"bytes32","internalType":"bytes32"}],"outputs":[{"name":"","type":"uint256","internalType":"uint256"}],"stateMutability":"payable"},{"type":"function","name":"getVotes","inputs":[{"name":"account","type":"address","internalType":"address"},{"name":"timepoint","type":"uint256","internalType":"uint256"}],"outputs":[{"name":"","type":"uint256","internalType":"uint256"}],"stateMutability":"view"},{"type":"function","name":"getVotesWithParams","inputs":[{"name":"account","type":"address","internalType":"address"},{"name":"timepoint","type":"uint256","internalType":"uint256"},{"name":"params","type":"bytes","internalType":"bytes"}],"outputs":[{"name":"","type":"uint256","internalType":"uint256"}],"stateMutability":"view"},{"type":"function","name":"hasVoted","inputs":[{"name":"proposalId","type":"uint256","internalType":"uint256"},{"name":"account","type":"address","internalType":"address"}],"outputs":[{"name":"","type":"bool","internalType":"bool"}],"stateMutability":"view"},{"type":"function","name":"hashProposal","inputs":[{"name":"targets","type":"address[]","internalType":"address[]"},{"name":"values","type":"uint256[]","internalType":"uint256[]"},{"name":"calldatas","type":"bytes[]","internalType":"bytes[]"},{"name":"descriptionHash","type":"bytes32","internalType":"bytes32"}],"outputs":[{"name":"","type":"uint256","internalType":"uint256"}],"stateMutability":"pure"},{"type":"function","name":"name","inputs":[],"outputs":[{"name":"","type":"string","internalType":"string"}],"stateMutability":"view"},{"type":"function","name":"nonces","inputs":[{"name":"owner","type":"address","internalType":"address"}],"outputs":[{"name":"","type":"uint256","internalType":"uint256"}],"stateMutability":"view"},{"type":"function","name":"onERC1155BatchReceived","inputs":[{"name":"","type":"address","internalType":"address"},{"name":"","type":"address","internalType":"address"},{"name":"","type":"uint256[]","internalType":"uint256[]"},{"name":"","type":"uint256[]","internalType":"uint256[]"},{"name":"","type":"bytes","internalType":"bytes"}],"outputs":[{"name":"","type":"bytes4","internalType":"bytes4"}],"stateMutability":"nonpayable"},{"type":"function","name":"onERC1155Received","inputs":[{"name":"","type":"address","internalType":"address"},{"name":"","type":"address","internalType":"address"},{"name":"","type":"uint256","internalType":"uint256"},{"name":"","type":"uint256","internalType":"uint256"},{"name":"","type":"bytes","internalType":"bytes"}],"outputs":[{"name":"","type":"bytes4","internalType":"bytes4"}],"stateMutability":"nonpayable"},{"type":"function","name":"onERC721Received","inputs":[{"name":"","type":"address","internalType":"address"},{"name":"","type":"address","internalType":"address"},{"name":"","type":"uint256","internalType":"uint256"},{"name":"","type":"bytes","internalType":"bytes"}],"outputs":[{"name":"","type":"bytes4","internalType":"bytes4"}],"stateMutability":"nonpayable"},{"type":"function","name":"proposalDeadline","inputs":[{"name":"proposalId","type":"uint256","internalType":"uint256"}],"outputs":[{"name":"","type":"uint256","internalType":"uint256"}],"stateMutability":"view"},{"type":"function","name":"proposalEta","inputs":[{"name":"proposalId","type":"uint256","internalType":"uint256"}],"outputs":[{"name":"","type":"uint256","internalType":"uint256"}],"stateMutability":"view"},{"type":"function","name":"proposalNeedsQueuing","inputs":[{"name":"proposalId","type":"uint256","internalType":"uint256"}],"outputs":[{"name":"","type":"bool","internalType":"bool"}],"stateMutability":"view"},{"type":"function","name":"proposalProposer","inputs":[{"name":"proposalId","type":"uint256","internalType":"uint256"}],"outputs":[{"name":"","type":"address","internalType":"address"}],"stateMutability":"view"},{"type":"function","name":"proposalSnapshot","inputs":[{"name":"proposalId","type":"uint256","internalType":"uint256"}],"outputs":[{"name":"","type":"uint256","internalType":"uint256"}],"stateMutability":"view"},{"type":"function","name":"proposalThreshold","inputs":[],"outputs":[{"name":"","type":"uint256","internalType":"uint256"}],"stateMutability":"view"},{"type":"function","name":"proposalVotes","inputs":[{"name":"proposalId","type":"uint256","internalType":"uint256"}],"outputs":[{"name":"againstVotes","type":"uint256","internalType":"uint256"},{"name":"forVotes","type":"uint256","internalType":"uint256"},{"name":"abstainVotes","type":"uint256","internalType":"uint256"}],"stateMutability":"view"},{"type":"function","name":"propose","inputs":[{"name":"targets","type":"address[]","internalType":"address[]"},{"name":"values","type":"uint256[]","internalType":"uint256[]"},{"name":"calldatas","type":"bytes[]","internalType":"bytes[]"},{"name":"description","type":"string","internalType":"string"}],"outputs":[{"name":"","type":"uint256","internalType":"uint256"}],"stateMutability":"nonpayable"},{"type":"function","name":"queue","inputs":[{"name":"targets","type":"address[]","internalType":"address[]"},{"name":"values","type":"uint256[]","internalType":"uint256[]"},{"name":"calldatas","type":"bytes[]","internalType":"bytes[]"},{"name":"descriptionHash","type":"bytes32","internalType":"bytes32"}],"outputs":[{"name":"","type":"uint256","internalType":"uint256"}],"stateMutability":"nonpayable"},{"type":"function","name":"quorum","inputs":[{"name":"blockNumber","type":"uint256","internalType":"uint256"}],"outputs":[{"name":"","type":"uint256","internalType":"uint256"}],"stateMutability":"view"},{"type":"function","name":"quorumDenominator","inputs":[],"outputs":[{"name":"","type":"uint256","internalType":"uint256"}],"stateMutability":"view"},{"type":"function","name":"quorumNumerator","inputs":[{"name":"timepoint","type":"uint256","internalType":"uint256"}],"outputs":[{"name":"","type":"uint256","internalType":"uint256"}],"stateMutability":"view"},{"type":"function","name":"quorumNumerator","inputs":[],"outputs":[{"name":"","type":"uint256","internalType":"uint256"}],"stateMutability":"view"},{"type":"function","name":"relay","inputs":[{"name":"target","type":"address","internalType":"address"},{"name":"value","type":"uint256","internalType":"uint256"},{"name":"data","type":"bytes","internalType":"bytes"}],"outputs":[],"stateMutability":"payable"},{"type":"function","name":"setProposalThreshold","inputs":[{"name":"newProposalThreshold","type":"uint256","internalType":"uint256"}],"outputs":[],"stateMutability":"nonpayable"},{"type":"function","name":"setVotingDelay","inputs":[{"name":"newVotingDelay","type":"uint48","internalType":"uint48"}],"outputs":[],"stateMutability":"nonpayable"},{"type":"function","name":"setVotingPeriod","inputs":[{"name":"newVotingPeriod","type":"uint32","internalType":"uint32"}],"outputs":[],"stateMutability":"nonpayable"},{"type":"function","name":"state","inputs":[{"name":"proposalId","type":"uint256","internalType":"uint256"}],"outputs":[{"name":"","type":"uint8","internalType":"enum IGovernor.ProposalState"}],"stateMutability":"view"},{"type":"function","name":"supportsInterface","inputs":[{"name":"interfaceId","type":"bytes4","internalType":"bytes4"}],"outputs":[{"name":"","type":"bool","internalType":"bool"}],"stateMutability":"view"},{"type":"function","name":"timelock","inputs":[],"outputs":[{"name":"","type":"address","internalType":"address"}],"stateMutability":"view"},{"type":"function","name":"token","inputs":[],"outputs":[{"name":"","type":"address","internalType":"contract IERC5805"}],"stateMutability":"view"},{"type":"function","name":"updateQuorumNumerator","inputs":[{"name":"newQuorumNumerator","type":"uint256","internalType":"uint256"}],"outputs":[],"stateMutability":"nonpayable"},{"type":"function","name":"updateTimelock","inputs":[{"name":"newTimelock","type":"address","internalType":"contract TimelockController"}],"outputs":[],"stateMutability":"nonpayable"},{"type":"function","name":"version","inputs":[],"outputs":[{"name":"","type":"string","internalType":"string"}],"stateMutability":"view"},{"type":"function","name":"votingDelay","inputs":[],"outputs":[{"name":"","type":"uint256","internalType":"uint256"}],"stateMutability":"view"},{"type":"function","name":"votingPeriod","inputs":[],"outputs":[{"name":"","type":"uint256","internalType":"uint256"}],"stateMutability":"view"},{"type":"event","name":"EIP712DomainChanged","inputs":[],"anonymous":false},{"type":"event","name":"ProposalCanceled","inputs":[{"name":"proposalId","type":"uint256","indexed":false,"internalType":"uint256"}],"anonymous":false},{"type":"event","name":"ProposalCreated","inputs":[{"name":"proposalId","type":"uint256","indexed":false,"internalType":"uint256"},{"name":"proposer","type":"address","indexed":false,"internalType":"address"},{"name":"targets","type":"address[]","indexed":false,"internalType":"address[]"},{"name":"values","type":"uint256[]","indexed":false,"internalType":"uint256[]"},{"name":"signatures","type":"string[]","indexed":false,"internalType":"string[]"},{"name":"calldatas","type":"bytes[]","indexed":false,"internalType":"bytes[]"},{"name":"voteStart","type":"uint256","indexed":false,"internalType":"uint256"},{"name":"voteEnd","type":"uint256","indexed":false,"internalType":"uint256"},{"name":"description","type":"string","indexed":false,"internalType":"string"}],"anonymous":false},{"type":"event","name":"ProposalExecuted","inputs":[{"name":"proposalId","type":"uint256","indexed":false,"internalType":"uint256"}],"anonymous":false},{"type":"event","name":"ProposalQueued","inputs":[{"name":"proposalId","type":"uint256","indexed":false,"internalType":"uint256"},{"name":"etaSeconds","type":"uint256","indexed":false,"internalType":"uint256"}],"anonymous":false},{"type":"event","name":"ProposalThresholdSet","inputs":[{"name":"oldProposalThreshold","type":"uint256","indexed":false,"internalType":"uint256"},{"name":"newProposalThreshold","type":"uint256","indexed":false,"internalType":"uint256"}],"anonymous":false},{"type":"event","name":"QuorumNumeratorUpdated","inputs":[{"name":"oldQuorumNumerator","type":"uint256","indexed":false,"internalType":"uint256"},{"name":"newQuorumNumerator","type":"uint256","indexed":false,"internalType":"uint256"}],"anonymous":false},{"type":"event","name":"TimelockChange","inputs":[{"name":"oldTimelock","type":"address","indexed":false,"internalType":"address"},{"name":"newTimelock","type":"address","indexed":false,"internalType":"address"}],"anonymous":false},{"type":"event","name":"VoteCast","inputs":[{"name":"voter","type":"address","indexed":true,"internalType":"address"},{"name":"proposalId","type":"uint256","indexed":false,"internalType":"uint256"},{"name":"support","type":"uint8","indexed":false,"internalType":"uint8"},{"name":"weight","type":"uint256","indexed":false,"internalType":"uint256"},{"name":"reason","type":"string","indexed":false,"internalType":"string"}],"anonymous":false},{"type":"event","name":"VoteCastWithParams","inputs":[{"name":"voter","type":"address","indexed":true,"internalType":"address"},{"name":"proposalId","type":"uint256","indexed":false,"internalType":"uint256"},{"name":"support","type":"uint8","indexed":false,"internalType":"uint8"},{"name":"weight","type":"uint256","indexed":false,"internalType":"uint256"},{"name":"reason","type":"string","indexed":false,"internalType":"string"},{"name":"params","type":"bytes","indexed":false,"internalType":"bytes"}],"anonymous":false},{"type":"event","name":"VotingDelaySet","inputs":[{"name":"oldVotingDelay","type":"uint256","indexed":false,"internalType":"uint256"},{"name":"newVotingDelay","type":"uint256","indexed":false,"internalType":"uint256"}],"anonymous":false},{"type":"event","name":"VotingPeriodSet","inputs":[{"name":"oldVotingPeriod","type":"uint256","indexed":false,"internalType":"uint256"},{"name":"newVotingPeriod","type":"uint256","indexed":false,"internalType":"uint256"}],"anonymous":false},{"type":"error","name":"CheckpointUnorderedInsertion","inputs":[]},{"type":"error","name":"FailedCall","inputs":[]},{"type":"error","name":"GovernorAlreadyCastVote","inputs":[{"name":"voter","type":"address","internalType":"address"}]},{"type":"error","name":"GovernorAlreadyQueuedProposal","inputs":[{"name":"proposalId","type":"uint256","internalType":"uint256"}]},{"type":"error","name":"GovernorDisabledDeposit","inputs":[]},{"type":"error","name":"GovernorInsufficientProposerVotes","inputs":[{"name":"proposer","type":"address","internalType":"address"},{"name":"votes","type":"uint256","internalType":"uint256"},{"name":"threshold","type":"uint256","internalType":"uint256"}]},{"type":"error","name":"GovernorInvalidProposalLength","inputs":[{"name":"targets","type":"uint256","internalType":"uint256"},{"name":"calldatas","type":"uint256","internalType":"uint256"},{"name":"values","type":"uint256","internalType":"uint256"}]},{"type":"error","name":"GovernorInvalidQuorumFraction","inputs":[{"name":"quorumNumerator","type":"uint256","internalType":"uint256"},{"name":"quorumDenominator","type":"uint256","internalType":"uint256"}]},{"type":"error","name":"GovernorInvalidSignature","inputs":[{"name":"voter","type":"address","internalType":"address"}]},{"type":"error","name":"GovernorInvalidVoteParams","inputs":[]},{"type":"error","name":"GovernorInvalidVoteType","inputs":[]},{"type":"error","name":"GovernorInvalidVotingPeriod","inputs":[{"name":"votingPeriod","type":"uint256","internalType":"uint256"}]},{"type":"error","name":"GovernorNonexistentProposal","inputs":[{"name":"proposalId","type":"uint256","internalType":"uint256"}]},{"type":"error","name":"GovernorNotQueuedProposal","inputs":[{"name":"proposalId","type":"uint256","internalType":"uint256"}]},{"type":"error","name":"GovernorOnlyExecutor","inputs":[{"name":"account","type":"address","internalType":"address"}]},{"type":"error","name":"GovernorOnlyProposer","inputs":[{"name":"account","type":"address","internalType":"address"}]},{"type":"error","name":"GovernorQueueNotImplemented","inputs":[]},{"type":"error","name":"GovernorRestrictedProposer","inputs":[{"name":"proposer","type":"address","internalType":"address"}]},{"type":"error","name":"GovernorUnexpectedProposalState","inputs":[{"name":"proposalId","type":"uint256","internalType":"uint256"},{"name":"current","type":"uint8","internalType":"enum IGovernor.ProposalState"},{"name":"expectedStates","type":"bytes32","internalType":"bytes32"}]},{"type":"error","name":"InvalidAccountNonce","inputs":[{"name":"account","type":"address","internalType":"address"},{"name":"currentNonce","type":"uint256","internalType":"uint256"}]},{"type":"error","name":"InvalidShortString","inputs":[]},{"type":"error","name":"SafeCastOverflowedUintDowncast","inputs":[{"name":"bits","type":"uint8","internalType":"uint8"},{"name":"value","type":"uint256","internalType":"uint256"}]},{"type":"error","name":"StringTooLong","inputs":[{"name":"str","type":"string","internalType":"string"}]}],"bytecode":{"object":"0x610180604052346100ae5761001b610015610110565b9061017c565b6040516139929081610a668239608051816131aa015260a05181613261015260c05181613174015260e051816131f90152610100518161321f01526101205181611399015261014051816113c501526101605181818161161d01528181611aaa01528181611be001528181611c7f01528181611e02015281816121a70152818161225101528181612974015261384c0152f35b5f80fd5b634e487b7160e01b5f52604160045260245ffd5b601f909101601f19168101906001600160401b038211908210176100e957604052565b6100b2565b604051906100fd6040836100c6565b565b6001600160a01b038116036100ae57565b6143f89060408238039283825194859261012a82856100c6565b8339810103126100ae576020825192610142846100ff565b01519161014e836100ff565b9190565b604051906101616040836100c6565b60148252565b604051906101766040836100c6565b60018252565b906100fd9161025761018c610152565b602081017f4167656e74436f756e63696c476f7665726e6f7200000000000000000000000081526101bb610167565b906020820190603160f81b82526101d1846105ee565b610120526101de836106de565b6101405283519020918260e05251902080610100524660a0526040519060208201927f8b73c3c69bb8fe3d512ecc4cf759cc79239f7b179b0ffacaa9a75d522b39400f8452604083015260608201524660808201523060a082015260a0815261024860c0826100c6565b5190206080523060c05261031f565b61025f610504565b61026761054f565b61026f6105a5565b6001600160a01b031661016052610284610457565b610404565b90600182811c921680156102b7575b60208310146102a357565b634e487b7160e01b5f52602260045260245ffd5b91607f1691610298565b919091601f83116102d2575b505050565b8183116102de57505050565b5f5260205f206020601f830160051c9210610317575b81601f9101920160051c03905f5b828110156102cd575f82820155600101610302565b5f91506102f4565b80519091906001600160401b0381116100e95761034881610341600354610289565b60036102c1565b602092601f821160011461038857610378929382915f9261037d575b50508160011b915f199060031b1c19161790565b600355565b015190505f80610364565b60035f52601f198216937fc2575a0e9e593c00f959f8c92f12db2869c3395a3b0502d05e2516446f71f85b915f5b8681106103ec57508360019596106103d4575b505050811b01600355565b01515f1960f88460031b161c191690555f80806103c9565b919260206001819286850151815501940192016103b6565b600b54604080516001600160a01b03808416825290931660208401819052927f08f74ea46ef7894f65eabfb5e6e695de773a000b47c529ab559178069b2264019190a16001600160a01b03191617600b55565b600a54806104b757505f5b6001600160d01b03166104736107d0565b7f0553476bf02ef2726e8ce5ced78d63e26e602e4a2257b1f559418e24b463399791600a916104a3908390610931565b5050604080519182526020820192909252a1565b805f198101116104f057600a5f527fc65a7bb8d6351c1cf70c95a316cc6a92839c986682d98bc35f958f4883f9d2a7015460301c610462565b634e487b7160e01b5f52601160045260245ffd5b60016008547fc565b045403dc03c2eea82b81a0465edad9e2e7fc4d97e11421c209da93d7a936040805165ffffffffffff84168152846020820152a165ffffffffffff191617600855565b6754600000000000006008547f7e3f7f0708a84de9203036abaa450dccc85ad5ff52f78c170f3edb55cf5e88286040805163ffffffff8460301c1681526154606020820152a163ffffffff60301b191617600855565b60075460408051918252670de0b6b3a764000060208301527fccb45da8d5717e6c4544694297c4ba5cf151d455c9bb0ed4fc7a38411bc0546191a1670de0b6b3a7640000600755565b908151602081105f1461060957509061060690610851565b90565b6001600160401b0381116100e95761062b816106255f54610289565b5f6102c1565b602092601f82116001146106615761065a929382915f9261037d5750508160011b915f199060031b1c19161790565b5f5560ff90565b5f8052601f198216937f290decd9548b62a8d60345a988386fc84ba6bc95484008f6362f93160ef3e563915f5b8681106106c657508360019596106106ae575b505050811b015f5560ff90565b01515f1960f88460031b161c191690555f80806106a1565b9192602060018192868501518155019401920161068e565b908151602081105f146106f657509061060690610851565b6001600160401b0381116100e95761071a81610713600154610289565b60016102c1565b602092601f821160011461075157610749929382915f9261037d5750508160011b915f199060031b1c19161790565b60015560ff90565b60015f52601f198216937fb10e2d527612073b26eecdfd717e6a320cf44b4afac2b0732d9fcbe2b7fa0cf6915f5b8681106107b857508360019596106107a0575b505050811b0160015560ff90565b01515f1960f88460031b161c191690555f8080610792565b9192602060018192868501518155019401920161077f565b610160516040516324776b7d60e21b815290602090829060049082906001600160a01b03165afa5f918161080e575b50610606575061060643610a36565b9091506020813d602011610849575b8161082a602093836100c6565b810103126100ae575165ffffffffffff811681036100ae57905f6107ff565b3d915061081d565b601f81511161087c57602081519101516020821061086d571790565b5f198260200360031b1b161790565b604460209160405192839163305a27a960e01b83528160048401528051918291826024860152018484015e5f828201840152601f01601f19168101030190fd5b5f198101919082116104f057565b908154680100000000000000008110156100e9576001810180845581101561091d575f9283526020928390208251929093015160301b65ffffffffffff191665ffffffffffff9290921691909117910155565b634e487b7160e01b5f52603260045260245ffd5b600a549192918015610a0d57610949610972916108bc565b600a5f527fc65a7bb8d6351c1cf70c95a316cc6a92839c986682d98bc35f958f4883f9d2a80190565b90815461098e6109878265ffffffffffff1690565b9160301c90565b9265ffffffffffff8084169216918083116109fe578692036109c85761014e92509065ffffffffffff82549181199060301b169116179055565b505061014e906109e76109d96100ee565b65ffffffffffff9092168252565b6001600160d01b03851660208201525b600a6108ca565b632520601d60e01b5f5260045ffd5b50610a3190610a1d6109d96100ee565b6001600160d01b03841660208201526109f7565b5f9190565b65ffffffffffff8111610a4e5765ffffffffffff1690565b6306dfcc6560e41b5f52603060045260245260445ffdfe60806040526004361015610022575b3615610018575f80fd5b61002061245f565b005b5f3560e01c806301ffc9a71461032157806302a251a31461031c57806306f3f9e61461031757806306fdde0314610312578063143489d01461030d578063150b7a0214610308578063160cbed7146103035780632656227d146102fe5780632d63f693146102f95780632fe3e261146102f45780633932abb1146102ef5780633e4f49e6146102ea57806343859632146102e5578063452115d6146102e05780634bf5d7e9146102db578063544ffc9c146102d657806354fd4d50146102d157806356781388146102cc5780635b8d0e0d146102c75780635f398a14146102c257806360c4247f146102bd57806379051887146102b85780637b3c71d3146102b35780637d5e81e2146102ae5780637ecebe00146102a957806384b0196e146102a45780638ff262e31461029f57806391ddadf41461029a57806397c3d334146102955780639a802a6d14610290578063a7713a701461028b578063a890c91014610286578063a9a9529414610281578063ab58fb8e1461027c578063b58131b014610277578063bc197c8114610272578063c01f9e371461026d578063c28bc2fa14610268578063c59057e414610263578063d33219b41461025e578063dd4e2ba514610259578063deaaa7cc14610254578063e540d01d1461024f578063eb9019d41461024a578063ece40cc114610245578063f23a6e6114610240578063f8ce560a1461023b5763fc0c546a0361000e57611c6a565b611baf565b611b42565b611aed565b611a48565b6119a2565b611968565b611909565b6118e1565b6118c5565b61185a565b61183c565b61178f565b611772565b61173f565b611723565b6116ab565b611680565b6115ab565b611590565b611566565b611451565b611381565b611313565b611265565b611210565b61119e565b611170565b6110fb565b611055565b610fe7565b610f94565b610f53565b610f24565b610dc9565b610d74565b610d45565b610cef565b610cb5565b610c80565b610b20565b6108d9565b610695565b61059b565b6104c1565b6103c3565b61039d565b3461038f57602036600319011261038f5760043563ffffffff60e01b811680910361038f576020906332a2ad4360e11b811490811561037e575b811561036d575b506040519015158152f35b6301ffc9a760e01b1490505f610362565b630271189760e51b8114915061035b565b5f80fd5b5f91031261038f57565b3461038f575f36600319011261038f57602063ffffffff60085460301c16604051908152f35b3461038f57602036600319011261038f576004356103df612475565b60648111610472576001600160d01b036103f7612e61565b169061040161223c565b916001600160d01b03821161045a577f0553476bf02ef2726e8ce5ced78d63e26e602e4a2257b1f559418e24b463399792610446906001600160d01b03841690613725565b5050604080519182526020820192909252a1005b506306dfcc6560e41b5f5260d060045260245260445ffd5b63243e544560e01b5f52600452606460245260445ffd5b805180835260209291819084018484015e5f828201840152601f01601f1916010190565b9060206104be928181520190610489565b90565b3461038f575f36600319011261038f576040515f6003546104e181611cae565b80845290600181169081156105775750600114610519575b61051583610509818503826105f2565b604051918291826104ad565b0390f35b60035f9081527fc2575a0e9e593c00f959f8c92f12db2869c3395a3b0502d05e2516446f71f85b939250905b80821061055d575090915081016020016105096104f9565b919260018160209254838588010152019101909291610545565b60ff191660208086019190915291151560051b8401909101915061050990506104f9565b3461038f57602036600319011261038f576004355f526004602052602060018060a01b0360405f205416604051908152f35b6001600160a01b0381160361038f57565b634e487b7160e01b5f52604160045260245ffd5b90601f801991011681019081106001600160401b0382111761061357604052565b6105de565b604051906106276040836105f2565b565b6001600160401b03811161061357601f01601f191660200190565b92919261065082610629565b9161065e60405193846105f2565b82948184528183011161038f578281602093845f960137010152565b9080601f8301121561038f578160206104be93359101610644565b3461038f57608036600319011261038f576106b16004356105cd565b6106bc6024356105cd565b6064356001600160401b03811161038f576106db90369060040161067a565b50600b54306001600160a01b039091160361070257604051630a85bd0160e11b8152602090f35b637485328f60e11b5f5260045ffd5b6001600160401b0381116106135760051b60200190565b9080601f8301121561038f57813561073f81610711565b9261074d60405194856105f2565b81845260208085019260051b82010192831161038f57602001905b8282106107755750505090565b602080918335610784816105cd565b815201910190610768565b9080601f8301121561038f5781356107a681610711565b926107b460405194856105f2565b81845260208085019260051b82010192831161038f57602001905b8282106107dc5750505090565b81358152602091820191016107cf565b9080601f8301121561038f57813561080381610711565b9261081160405194856105f2565b81845260208085019260051b8201019183831161038f5760208201905b83821061083d57505050505090565b81356001600160401b03811161038f5760209161085f8784809488010161067a565b81520191019061082e565b608060031982011261038f576004356001600160401b03811161038f578161089491600401610728565b916024356001600160401b03811161038f57826108b39160040161078f565b91604435906001600160401b03821161038f576108d2916004016107ec565b9060643590565b3461038f576108e73661086a565b90926108f5828585846123f8565b936108ff8561251d565b50600b5461091d906001600160a01b03165b6001600160a01b031690565b936040519363793d064960e11b8552602085600481895afa948515610acb575f95610aff575b503060601b6bffffffffffffffffffffffff191618946020604051809263b1c5f42760e01b8252818061097c8b89898c60048601612f52565b03915afa908115610acb575f91610ad0575b506109a1875f52600c60205260405f2090565b55600b546109b7906001600160a01b0316610911565b90813b1561038f575f80946109e387604051998a97889687956308f2a0bb60e41b875260048701612f97565b03925af1908115610acb57610a0792610a0292610ab1575b5042612a85565b612a48565b9065ffffffffffff821615610aa2577f9a2e42fd6722813d69113e7d0079d3d940171428df7373df9c7f7617cfda2892610a8f83610a70610515956001610a56875f52600460205260405f2090565b019065ffffffffffff1665ffffffffffff19825416179055565b6040805185815265ffffffffffff909216602083015290918291820190565b0390a16040519081529081906020820190565b634844252360e11b5f5260045ffd5b80610abf5f610ac5936105f2565b80610393565b5f6109fb565b611d94565b610af2915060203d602011610af8575b610aea81836105f2565b810190612e52565b5f61098e565b503d610ae0565b610b1991955060203d602011610af857610aea81836105f2565b935f610943565b610b293661086a565b91610b36838383876123f8565b936020610b446030876125dd565b50610b6d610b5a875f52600460205260405f2090565b805460ff60f01b1916600160f01b179055565b600b54306001600160a01b0390911603610c18575b5091849391610b949361051596612fe4565b600b543090610bab906001600160a01b0316610911565b141580610bf3575b610bea575b6040518181527f712ae1383f79ac853f8d882153778e0260ef8f03b504e2866e0593e04d2b291f908060208101610a8f565b5f600555610bb8565b50610c13610c0f6005546001600160801b0381169060801c1490565b1590565b610bb3565b949091935f5b8351811015610c725760019030610c48610911610c3b8489611d7b565b516001600160a01b031690565b14610c54575b01610c1e565b610c6d610c618288611d7b565b5189815191012061261b565b610c4e565b509094509290610515610b82565b3461038f57602036600319011261038f576004355f526004602052602065ffffffffffff60405f205460a01c16604051908152f35b3461038f575f36600319011261038f5760206040517f3e83946653575f9a39005e1545185629e92736b7528ab20ca3816f315424a8118152f35b3461038f575f36600319011261038f57602065ffffffffffff60085416604051908152f35b634e487b7160e01b5f52602160045260245ffd5b60081115610d3257565b610d14565b6008811015610d3257602452565b3461038f57602036600319011261038f57610d6160043561268a565b6040516008821015610d32576020918152f35b3461038f57604036600319011261038f57602060ff610dbd602435600435610d9b826105cd565b5f5260098452600360405f20019060018060a01b03165f5260205260405f2090565b54166040519015158152f35b3461038f57610dd73661086a565b91610de4838383876123f8565b610ded8161255d565b505f908152600460205260409020546001600160a01b03163303610f1157610e14936123f8565b610e1f603b826125dd565b50610e4a610e35825f52600460205260405f2090565b80546001600160f81b0316600160f81b179055565b6040518181527f789cf55be980739dad1d0699b93b58e806b51c9d96619bfa8fe0a28abaa7b30c90602090a1610e88815f52600c60205260405f2090565b549081610e9b575b604051908152602090f35b600b54610eb0906001600160a01b0316610911565b803b1561038f5760405163c4d252f560e01b815260048101939093525f908390602490829084905af1918215610acb5761051592610efd575b505f818152600c6020526040812055610e90565b80610abf5f610f0b936105f2565b5f610ee9565b63233d98e360e01b5f523360045260245ffd5b3461038f575f36600319011261038f57610515610f3f611dee565b604051918291602083526020830190610489565b3461038f57602036600319011261038f576004355f526009602052606060405f20805490600260018201549101549060405192835260208301526040820152f35b3461038f575f36600319011261038f57610515604051610fb56040826105f2565b60018152603160f81b6020820152604051918291602083526020830190610489565b6024359060ff8216820361038f57565b3461038f57604036600319011261038f576020611020600435611008610fd7565b6040519161101685846105f2565b5f83523390612797565b604051908152f35b9181601f8401121561038f578235916001600160401b03831161038f576020838186019501011161038f57565b3461038f5760c036600319011261038f57600435611071610fd7565b906044359061107f826105cd565b6064356001600160401b03811161038f5761109e903690600401611028565b6084356001600160401b03811161038f576110bd90369060040161067a565b9160a435946001600160401b03861161038f57610515966110e56110eb97369060040161067a565b95611ebd565b6040519081529081906020820190565b3461038f57608036600319011261038f57600435611117610fd7565b906044356001600160401b03811161038f57611137903690600401611028565b9190926064356001600160401b03811161038f57610e909461116061116892369060040161067a565b943691610644565b91339061290d565b3461038f57602036600319011261038f576020611020600435611fe0565b65ffffffffffff81160361038f57565b3461038f57602036600319011261038f576004356111bb8161118e565b6111c3612475565b6008547fc565b045403dc03c2eea82b81a0465edad9e2e7fc4d97e11421c209da93d7a93604065ffffffffffff81519481851686521693846020820152a165ffffffffffff191617600855005b3461038f57606036600319011261038f5760043561122c610fd7565b90604435906001600160401b03821161038f5760209261125d611256611020943690600401611028565b3691610644565b913390612797565b3461038f57608036600319011261038f576004356001600160401b03811161038f57611295903690600401610728565b6024356001600160401b03811161038f576112b490369060040161078f565b906044356001600160401b03811161038f576112d49036906004016107ec565b90606435916001600160401b03831161038f573660238401121561038f576105159361130d6110eb943690602481600401359101610644565b92612120565b3461038f57602036600319011261038f57600435611330816105cd565b60018060a01b03165f526002602052602060405f2054604051908152f35b90602080835192838152019201905f5b81811061136b5750505090565b825184526020938401939092019160010161135e565b3461038f575f36600319011261038f576114236113bd7f000000000000000000000000000000000000000000000000000000000000000061361d565b6105156113e97f000000000000000000000000000000000000000000000000000000000000000061367c565b611431604051916113fb6020846105f2565b5f808452366020850137604051958695600f60f81b875260e0602088015260e0870190610489565b908582036040870152610489565b904660608501523060808501525f60a085015283820360c085015261134e565b3461038f57608036600319011261038f5760043561146d610fd7565b906044359161147b836105cd565b6064356001600160401b03811161038f57610c0f6114a061152e92369060040161067a565b6001600160a01b0386165f9081526002602052604090208054600181019091556115289060405160208101917ff2aad550cf55f045cb27e9c559f9889fdfb6e6cdaa032301d6ea397784ae51d7835288604083015260ff8816606083015260018060a01b038a16608083015260a082015260a0815261152060c0826105f2565b5190206127b4565b866127e4565b61154957906110eb9161051593611543611d9f565b92612797565b6394ab6c0760e01b5f526001600160a01b03831660045260245b5ffd5b3461038f575f36600319011261038f57602061158061223c565b65ffffffffffff60405191168152f35b3461038f575f36600319011261038f57602060405160648152f35b3461038f57606036600319011261038f576004356115c8816105cd565b6024356044356001600160401b03811161038f576115ea90369060040161067a565b50604051630748d63560e31b81526001600160a01b039283166004820152602481019190915290602090829060449082907f0000000000000000000000000000000000000000000000000000000000000000165afa8015610acb57610515915f91611661575b506040519081529081906020820190565b61167a915060203d602011610af857610aea81836105f2565b5f611650565b3461038f575f36600319011261038f5760206001600160d01b036116a2612e61565b16604051908152f35b3461038f57602036600319011261038f576004356116c8816105cd565b6116d0612475565b600b54604080516001600160a01b03808416825290931660208401819052927f08f74ea46ef7894f65eabfb5e6e695de773a000b47c529ab559178069b2264019190a16001600160a01b03191617600b55005b3461038f57602036600319011261038f57602060405160018152f35b3461038f57602036600319011261038f5760206110206004355f52600460205265ffffffffffff600160405f2001541690565b3461038f575f36600319011261038f576020600754604051908152f35b3461038f5760a036600319011261038f576117ab6004356105cd565b6117b66024356105cd565b6044356001600160401b03811161038f576117d590369060040161078f565b506064356001600160401b03811161038f576117f590369060040161078f565b506084356001600160401b03811161038f5761181590369060040161067a565b506105156118216122cf565b6040516001600160e01b031990911681529081906020820190565b3461038f57602036600319011261038f5760206110206004356122ee565b606036600319011261038f57600435611872816105cd565b6024356044356001600160401b03811161038f57610020925f9261189b84933690600401611028565b91906118a5612475565b826040519384928337810185815203925af16118bf612335565b90612ea5565b3461038f5760206110206118d83661086a565b929190916123f8565b3461038f575f36600319011261038f57600b546040516001600160a01b039091168152602090f35b3461038f575f36600319011261038f5761051560405161192a6040826105f2565b602081527f737570706f72743d627261766f2671756f72756d3d666f722c6162737461696e6020820152604051918291602083526020830190610489565b3461038f575f36600319011261038f5760206040517ff2aad550cf55f045cb27e9c559f9889fdfb6e6cdaa032301d6ea397784ae51d78152f35b3461038f57602036600319011261038f5760043563ffffffff81169081810361038f576119cd612475565b8115611a355769ffffffff000000000000907f7e3f7f0708a84de9203036abaa450dccc85ad5ff52f78c170f3edb55cf5e882860406008549481519063ffffffff8760301c1682526020820152a160301b169069ffffffff0000000000001916176008555f80f35b63f1cfbf0560e01b5f525f60045260245ffd5b3461038f57604036600319011261038f57600435611a65816105cd565b6024355f604051611a776020826105f2565b52604051630748d63560e31b81526001600160a01b039283166004820152602481019190915290602090829060449082907f0000000000000000000000000000000000000000000000000000000000000000165afa8015610acb57610515915f9161166157506040519081529081906020820190565b3461038f57602036600319011261038f57600435611b09612475565b60075460408051918252602082018390527fccb45da8d5717e6c4544694297c4ba5cf151d455c9bb0ed4fc7a38411bc0546191a1600755005b3461038f5760a036600319011261038f57611b5e6004356105cd565b611b696024356105cd565b6084356001600160401b03811161038f57611b8890369060040161067a565b50600b54306001600160a01b03909116036107025760405163f23a6e6160e01b8152602090f35b3461038f57602036600319011261038f57600435604051632394e7a360e21b815260048101829052906020826024817f00000000000000000000000000000000000000000000000000000000000000006001600160a01b03165afa918215610acb575f92611c45575b50611c2290611fe0565b90818102918183041490151715611c405761051590606490046110eb565b611faf565b611c22919250611c639060203d602011610af857610aea81836105f2565b9190611c18565b3461038f575f36600319011261038f576040517f00000000000000000000000000000000000000000000000000000000000000006001600160a01b03168152602090f35b90600182811c92168015611cdc575b6020831014611cc857565b634e487b7160e01b5f52602260045260245ffd5b91607f1691611cbd565b5f9291815491611cf583611cae565b8083529260018116908115611d4a5750600114611d1157505050565b5f9081526020812093945091925b838310611d30575060209250010190565b600181602092949394548385870101520191019190611d1f565b915050602093945060ff929192191683830152151560051b010190565b634e487b7160e01b5f52603260045260245ffd5b8051821015611d8f5760209160051b010190565b611d67565b6040513d5f823e3d90fd5b60405190611dae6020836105f2565b5f8252565b60405190611dc26040836105f2565b601d82527f6d6f64653d626c6f636b6e756d6265722666726f6d3d64656661756c740000006020830152565b604051634bf5d7e960e01b81525f816004817f00000000000000000000000000000000000000000000000000000000000000006001600160a01b03165afa5f9181611e42575b506104be57506104be611db3565b9091503d805f833e611e5481836105f2565b81019060208183031261038f578051906001600160401b03821161038f570181601f8201121561038f57805190611e8a82610629565b92611e9860405194856105f2565b8284526020838301011161038f57815f9260208093018386015e83010152905f611e34565b939092919695610c0f611f7891611f728a611ef18160018060a01b03165f52600260205260405f2080549060018201905590565b611efc36888a610644565b602081519101208b5160208d0120906040519260208401947f3e83946653575f9a39005e1545185629e92736b7528ab20ca3816f315424a81186528d604086015260ff8d16606086015260018060a01b0316608085015260a084015260c083015260e082015260e08152611520610100826105f2565b8a6127e4565b611f93576104be959691611f8d913691610644565b9261290d565b6394ab6c0760e01b5f526001600160a01b03871660045260245ffd5b634e487b7160e01b5f52601160045260245ffd5b5f19810191908211611c4057565b602719810191908211611c4057565b600a54905f198201828111611c4057821115611d8f57600a5f527fc65a7bb8d6351c1cf70c95a316cc6a92839c986682d98bc35f958f4883f9d2a78201548165ffffffffffff82161115612117575061203890612a48565b5f8291600584116120a6575b61204e93506134fc565b8061205857505f90565b61209a61209361206a6104be93611fc3565b600a5f527fc65a7bb8d6351c1cf70c95a316cc6a92839c986682d98bc35f958f4883f9d2a80190565b5460301c90565b6001600160d01b031690565b91926120b18161339e565b8103908111611c405761204e93600a5f5265ffffffffffff827fc65a7bb8d6351c1cf70c95a316cc6a92839c986682d98bc35f958f4883f9d2a801541665ffffffffffff8516105f14612105575091612044565b92915061211190612a77565b90612044565b91505060301c90565b919392909361212f8233612aa3565b1561222957600754948561214b575b6104be9495503393612c6f565b5f1965ffffffffffff61215c61223c565b160165ffffffffffff8111611c405765ffffffffffff16955f6040516121836020826105f2565b52604051630748d63560e31b815233600482015260248101979097526020876044817f00000000000000000000000000000000000000000000000000000000000000006001600160a01b03165afa968715610acb575f97612208575b508087106121ed575061213e565b636121770b60e11b5f5233600452602487905260445260645ffd5b61222291975060203d602011610af857610aea81836105f2565b955f6121df565b63d9b3955760e01b5f523360045260245ffd5b6040516324776b7d60e21b81526020816004817f00000000000000000000000000000000000000000000000000000000000000006001600160a01b03165afa5f9181612292575b506104be57506104be43612a48565b9091506020813d6020116122c7575b816122ae602093836105f2565b8101031261038f57516122c08161118e565b905f612283565b3d91506122a1565b600b54306001600160a01b03909116036107025763bc197c8160e01b90565b805f52600460205265ffffffffffff60405f205460a01c16905f52600460205263ffffffff60405f205460d01c160165ffffffffffff8111611c405765ffffffffffff1690565b3d1561235f573d9061234682610629565b9161235460405193846105f2565b82523d5f602084013e565b606090565b90602080835192838152019201905f5b8181106123815750505090565b82516001600160a01b0316845260209384019390920191600101612374565b9080602083519182815201916020808360051b8301019401925f915b8383106123cb57505050505090565b90919293946020806123e9600193601f198682030187528951610489565b970193019301919392906123bc565b92906124599161244561243394604051958694612421602087019960808b5260a0880190612364565b868103601f190160408801529061134e565b848103601f19016060860152906123a0565b90608083015203601f1981018352826105f2565b51902090565b600b54306001600160a01b039091160361070257565b600b54336001600160a01b03909116036124de57600b54306001600160a01b039091160361249f57565b6124a836610629565b6124b560405191826105f2565b3681526020810190365f83375f602036830101525190205b806124d6612ee9565b036124cd5750565b6347096e4760e01b5f523360045260245ffd5b6008811015610d325760ff600191161b90565b600452606491906008811015610d32576024525f604452565b6125268161268a565b906010612532836124f1565b161561253c575090565b6331b75e4d60e01b5f526004526125539150610d37565b601060445260645ffd5b6125668161268a565b906001612572836124f1565b161561257c575090565b6331b75e4d60e01b5f526004526125939150610d37565b600160445260645ffd5b6125a68161268a565b9060026125b2836124f1565b16156125bc575090565b6331b75e4d60e01b5f526004526125d39150610d37565b600260445260645ffd5b906125e78261268a565b91816125f2846124f1565b16156125fd57505090565b6331b75e4d60e01b5f5260045261261382610d37565b60445260645ffd5b600554908160801c6001600160801b0380600183011693168314612660575f52600660205260405f20556001600160801b036005549181199060801b16911617600555565b634e487b715f5260416020526024601cfd5b9081602091031261038f5751801515810361038f5790565b61269381613071565b9061269d82610d28565b60058203612793576126b891505f52600c60205260405f2090565b54600b546126ce906001600160a01b0316610911565b604051632c258a9f60e11b815260048101839052602081602481855afa908115610acb575f91612774575b5015612706575050600590565b604051632ab0f52960e01b81526004810192909252602090829060249082905afa908115610acb575f91612745575b501561274057600790565b600290565b612767915060203d60201161276d575b61275f81836105f2565b810190612672565b5f612735565b503d612755565b61278d915060203d60201161276d5761275f81836105f2565b5f6126f9565b5090565b916104be9391604051936127ac6020866105f2565b5f855261290d565b6042906127bf613171565b906040519161190160f01b8352600283015260228201522090565b60041115610d3257565b9190823b61281f57906127f691613287565b50612800816127da565b15918261280c57505090565b6001600160a01b03918216911614919050565b915f9261285561286385946040519283916020830195630b135d3f60e11b87526024840152604060448401526064830190610489565b03601f1981018352826105f2565b51915afa61286f612335565b8161289f575b8161287e575090565b905061289b630b135d3f60e11b9160208082518301019101612e52565b1490565b905060208151101590612875565b93909260ff6128d9936104be97958752166020860152604085015260a0606085015260a0840190610489565b916080818403910152610489565b909260ff6080936104be9695845216602083015260408201528160608201520190610489565b9291909261291a8161259d565b50805f52600460205265ffffffffffff61294160405f2065ffffffffffff905460a01c1690565b1693604051630748d63560e31b815260018060a01b03821695866004830152602482015260208160448160018060a01b037f0000000000000000000000000000000000000000000000000000000000000000165afa908115610acb576129b19285915f93612a27575b50846132c1565b948051155f146129f457506129ee7fb8e138887d0aa13bab447e82de9d5c1777041ecd21ca36ba824ff1e6c07ddda49386604051948594856128e7565b0390a290565b6129ee907fe2babfbac5889a709b63bb7f598b324e08bc5a4fb9ec647fb3cbc9ec07eb87129487604051958695866128ad565b612a4191935060203d602011610af857610aea81836105f2565b915f6129aa565b65ffffffffffff8111612a605765ffffffffffff1690565b6306dfcc6560e41b5f52603060045260245260445ffd5b9060018201809211611c4057565b91908201809211611c4057565b908151811015611d8f570160200190565b815160348110612b525760131981840101516001600160a01b0319166b1b91f1b211f2119351b859f160a31b01612b5257915f92612ae081611fd1565b915b818310612afd575050506001600160a01b0391821691161490565b909193612b23612b1e612b108785612a92565b516001600160f81b03191690565b613575565b9015612b475760019160ff9060041b6010600160a01b031691161794019190612ae2565b505050505050600190565b505050600190565b90612b6482610711565b612b7160405191826105f2565b8281528092612b82601f1991610711565b01905f5b828110612b9257505050565b806060602080938501015201612b86565b959998969794939192612be493612bd692885260018060a01b031660208801526101206040880152610120870190612364565b90858203606087015261134e565b968388036080850152815180895260208901906020808260051b8c01019401915f905b828210612c4357505050506104be96975090612c2a9184820360a08601526123a0565b9360c083015260e0820152610100818403910152610489565b90919294602080612c616001938f601f199082030186528951610489565b970192019201909291612c07565b929094939194612c87825160208401208783876123f8565b958451825190818114801590612e47575b8015612e3f575b612e2057505065ffffffffffff612cd0612cc1895f52600460205260405f2090565b5460a01c65ffffffffffff1690565b16612e035791612dfe917f7d84a6263ae0d98d3329bd7b46bb4e8d6f98cd35a7adb45c274c8b7fd5ebd5e0959493612d36612d0961223c565b65ffffffffffff612d2f612d2465ffffffffffff6008541690565b65ffffffffffff1690565b9116612a85565b90612d55612d4c63ffffffff60085460301c1690565b63ffffffff1690565b612ddc612d6a8c5f52600460205260405f2090565b80546001600160a01b0319166001600160a01b038a16178155612db3612d8f86612a48565b825465ffffffffffff60a01b191660a09190911b65ffffffffffff60a01b16178255565b612dbc836135f2565b815463ffffffff60d01b191660d09190911b63ffffffff60d01b16179055565b612df0612de98951612b5a565b9184612a85565b936040519889988d8a612ba3565b0390a1565b61156387612e108161268a565b6331b75e4d60e01b5f5290612504565b9151630447b05d60e41b5f908152600493909352602452604452606490fd5b508015612c9f565b508251811415612c98565b9081602091031261038f575190565b600a5480612e6e57505f90565b805f19810111611c4057600a5f527fc65a7bb8d6351c1cf70c95a316cc6a92839c986682d98bc35f958f4883f9d2a7015460301c90565b9091906106275750805115612ebc57805190602001fd5b63d6bda27560e01b5f5260045ffd5b8115612ed5570490565b634e487b7160e01b5f52601260045260245ffd5b600554906001600160801b0382169160801c8214612f4057815f5260066020526001600160801b0380600160405f2054948281165f5260066020525f60408120550116166001600160801b03196005541617600555565b634e487b715f5260316020526024601cfd5b949392612f7e608093612f70612f8c9460a08a5260a08a0190612364565b9088820360208a015261134e565b9086820360408801526123a0565b935f60608201520152565b9192612fc660a094612fb8612fd4949998979960c0875260c0870190612364565b90858203602087015261134e565b9083820360408501526123a0565b945f606083015260808201520152565b600b5490949192916001600160a01b03909116906bffffffffffffffffffffffff193060601b16823b1561038f576130365f956040519788968795869563e38335e560e01b8752189260048601612f52565b039134905af18015610acb57613058575b505f908152600c6020526040812055565b806130645f80936105f2565b80031261038f575f613047565b613083815f52600460205260405f2090565b5460f881901c9060f01c60ff1661316a57613164576130b0612d24612cc1835f52600460205260405f2090565b8015613150576130c1612d2461223c565b8091101561314a576130d2826122ee565b106130dd5750600190565b6130e9610c0f82613805565b8015613127575b156130fb5750600390565b613119905f52600460205265ffffffffffff600160405f2001541690565b61312257600490565b600590565b50613145610c0f825f52600960205260405f20600181015490541090565b6130f0565b50505f90565b636ad0607560e01b5f52600482905260245ffd5b50600290565b5050600790565b307f00000000000000000000000000000000000000000000000000000000000000006001600160a01b0316148061325e575b156131cc577f000000000000000000000000000000000000000000000000000000000000000090565b60405160208101907f8b73c3c69bb8fe3d512ecc4cf759cc79239f7b179b0ffacaa9a75d522b39400f82527f000000000000000000000000000000000000000000000000000000000000000060408201527f000000000000000000000000000000000000000000000000000000000000000060608201524660808201523060a082015260a0815261245960c0826105f2565b507f000000000000000000000000000000000000000000000000000000000000000046146131a3565b81519190604183036132b7576132b09250602082015190606060408401519301515f1a906138da565b9192909190565b50505f9160029190565b6132d6909291925f52600960205260405f2090565b91600383016132ff6132f883839060018060a01b03165f5260205260405f2090565b5460ff1690565b6133825761332360ff9392613330929060018060a01b03165f5260205260405f2090565b805460ff19166001179055565b16806133475750613342828254612a85565b905590565b6001810361335e5750600101613342828254612a85565b60020361337357600201613342828254612a85565b6303599be160e11b5f5260045ffd5b6371c6af4960e01b5f526001600160a01b03821660045260245ffd5b60018111156104be57806001600160801b8210156134bf575b61346561345b61345161344761343d61343361342261346c9760048a600160401b6134719c10156134b2575b6401000000008110156134a5575b62010000811015613498575b61010081101561348b575b601081101561347e575b1015613476575b60030260011c90565b61342c818b612ecb565b0160011c90565b61342c818a612ecb565b61342c8189612ecb565b61342c8188612ecb565b61342c8187612ecb565b61342c8186612ecb565b8093612ecb565b821190565b900390565b60011b613419565b60041c9160021b91613412565b60081c9160041b91613408565b60101c9160081b916133fd565b60201c9160101b916133f1565b60401c9160201b916133e3565b505061347161346c61346561345b61345161344761343d6134336134226134e68a60801c90565b9850600160401b97506133b79650505050505050565b905b82811061350a57505090565b90918082169080831860011c8201809211611c4057600a5f527fc65a7bb8d6351c1cf70c95a316cc6a92839c986682d98bc35f958f4883f9d2a882015465ffffffffffff90811690851610156135635750915b906134fe565b92915061356f90612a77565b9061355d565b60f81c9081602f10806135e8575b1561359557600191602f190160ff1690565b81604010806135de575b156135b1576001916036190160ff1690565b81606010806135d4575b156135cd576001916056190160ff1690565b5f91508190565b50606782106135bb565b506047821061359f565b50603a8210613583565b63ffffffff81116136065763ffffffff1690565b6306dfcc6560e41b5f52602060045260245260445ffd5b60ff81146136635760ff811690601f821161365457604051916136416040846105f2565b6020808452838101919036833783525290565b632cd44ac360e21b5f5260045ffd5b506040516104be81613675815f611ce6565b03826105f2565b60ff81146136a05760ff811690601f821161365457604051916136416040846105f2565b506040516104be81613675816001611ce6565b908154600160401b8110156106135760018101808455811015611d8f57610627925f5260205f20019061370365ffffffffffff825116839065ffffffffffff1665ffffffffffff19825416179055565b60200151815465ffffffffffff1660309190911b65ffffffffffff1916179055565b600a5491929180156137dc5761206a61373d91611fc3565b9081546137596137528265ffffffffffff1690565b9160301c90565b9265ffffffffffff8084169216918083116137cd578692036137975761379392509065ffffffffffff82549181199060301b169116179055565b9190565b5050613793906137b66137a8610618565b65ffffffffffff9092168252565b6001600160d01b03851660208201525b600a6136b3565b632520601d60e01b5f5260045ffd5b50613800906137ec6137a8610618565b6001600160d01b03841660208201526137c6565b5f9190565b805f52600960205260405f20905f52600460205265ffffffffffff60405f205460a01c1660405190632394e7a360e21b825280600483015260208260248160018060a01b037f0000000000000000000000000000000000000000000000000000000000000000165afa918215610acb575f926138b5575b5061388690611fe0565b90818102918183041490151715611c40576138b09060649004916002600182015491015490612a85565b101590565b6138869192506138d39060203d602011610af857610aea81836105f2565b919061387c565b91907f7fffffffffffffffffffffffffffffff5d576e7357a4501ddfe92f46681b20a08411613951579160209360809260ff5f9560405194855216868401526040830152606082015282805260015afa15610acb575f516001600160a01b0381161561394757905f905f90565b505f906001905f90565b5050505f916003919056fea264697066735822122092f5e83d68bb771ed589b347ef01754143c49be2dc7d55186995e4c512c32b3c64736f6c63430008210033","linkReferences":{}},"methodIdentifiers":{"BALLOT_TYPEHASH()":"deaaa7cc","CLOCK_MODE()":"4bf5d7e9","COUNTING_MODE()":"dd4e2ba5","EXTENDED_BALLOT_TYPEHASH()":"2fe3e261","cancel(address[],uint256[],bytes[],bytes32)":"452115d6","castVote(uint256,uint8)":"56781388","castVoteBySig(uint256,uint8,address,bytes)":"8ff262e3","castVoteWithReason(uint256,uint8,string)":"7b3c71d3","castVoteWithReasonAndParams(uint256,uint8,string,bytes)":"5f398a14","castVoteWithReasonAndParamsBySig(uint256,uint8,address,string,bytes,bytes)":"5b8d0e0d","clock()":"91ddadf4","eip712Domain()":"84b0196e","execute(address[],uint256[],bytes[],bytes32)":"2656227d","getVotes(address,uint256)":"eb9019d4","getVotesWithParams(address,uint256,bytes)":"9a802a6d","hasVoted(uint256,address)":"43859632","hashProposal(address[],uint256[],bytes[],bytes32)":"c59057e4","name()":"06fdde03","nonces(address)":"7ecebe00","onERC1155BatchReceived(address,address,uint256[],uint256[],bytes)":"bc197c81","onERC1155Received(address,address,uint256,uint256,bytes)":"f23a6e61","onERC721Received(address,address,uint256,bytes)":"150b7a02","proposalDeadline(uint256)":"c01f9e37","proposalEta(uint256)":"ab58fb8e","proposalNeedsQueuing(uint256)":"a9a95294","proposalProposer(uint256)":"143489d0","proposalSnapshot(uint256)":"2d63f693","proposalThreshold()":"b58131b0","proposalVotes(uint256)":"544ffc9c","propose(address[],uint256[],bytes[],string)":"7d5e81e2","queue(address[],uint256[],bytes[],bytes32)":"160cbed7","quorum(uint256)":"f8ce560a","quorumDenominator()":"97c3d334","quorumNumerator()":"a7713a70","quorumNumerator(uint256)":"60c4247f","relay(address,uint256,bytes)":"c28bc2fa","setProposalThreshold(uint256)":"ece40cc1","setVotingDelay(uint48)":"79051887","setVotingPeriod(uint32)":"e540d01d","state(uint256)":"3e4f49e6","supportsInterface(bytes4)":"01ffc9a7","timelock()":"d33219b4","token()":"fc0c546a","updateQuorumNumerator(uint256)":"06f3f9e6","updateTimelock(address)":"a890c910","version()":"54fd4d50","votingDelay()":"3932abb1","votingPeriod()":"02a251a3"},"id":69}