{"abi":[{"type":"constructor","inputs":[{"name":"agents","type":"address[4]","internalType":"address[4]"}],"stateMutability":"nonpayable"},{"type":"function","name":"CLOCK_MODE","inputs":[],"outputs":[{"name":"","type":"string","internalType":"string"}],"stateMutability":"view"},{"type":"function","name":"DOMAIN_SEPARATOR","inputs":[],"outputs":[{"name":"","type":"bytes32","internalType":"bytes32"}],"stateMutability":"view"},{"type":"function","name":"SHARE_AGENT_0","inputs":[],"outputs":[{"name":"","type":"uint256","internalType":"uint256"}],"stateMutability":"view"},{"type":"function","name":"SHARE_AGENT_1","inputs":[],"outputs":[{"name":"","type":"uint256","internalType":"uint256"}],"stateMutability":"view"},{"type":"function","name":"SHARE_AGENT_2","inputs":[],"outputs":[{"name":"","type":"uint256","internalType":"uint256"}],"stateMutability":"view"},{"type":"function","name":"SHARE_AGENT_3","inputs":[],"outputs":[{"name":"","type":"uint256","internalType":"uint256"}],"stateMutability":"view"},{"type":"function","name":"TOTAL_SUPPLY","inputs":[],"outputs":[{"name":"","type":"uint256","internalType":"uint256"}],"stateMutability":"view"},{"type":"function","name":"allowance","inputs":[{"name":"owner","type":"address","internalType":"address"},{"name":"spender","type":"address","internalType":"address"}],"outputs":[{"name":"","type":"uint256","internalType":"uint256"}],"stateMutability":"view"},{"type":"function","name":"approve","inputs":[{"name":"spender","type":"address","internalType":"address"},{"name":"value","type":"uint256","internalType":"uint256"}],"outputs":[{"name":"","type":"bool","internalType":"bool"}],"stateMutability":"nonpayable"},{"type":"function","name":"balanceOf","inputs":[{"name":"account","type":"address","internalType":"address"}],"outputs":[{"name":"","type":"uint256","internalType":"uint256"}],"stateMutability":"view"},{"type":"function","name":"checkpoints","inputs":[{"name":"account","type":"address","internalType":"address"},{"name":"pos","type":"uint32","internalType":"uint32"}],"outputs":[{"name":"","type":"tuple","internalType":"struct Checkpoints.Checkpoint208","components":[{"name":"_key","type":"uint48","internalType":"uint48"},{"name":"_value","type":"uint208","internalType":"uint208"}]}],"stateMutability":"view"},{"type":"function","name":"clock","inputs":[],"outputs":[{"name":"","type":"uint48","internalType":"uint48"}],"stateMutability":"view"},{"type":"function","name":"decimals","inputs":[],"outputs":[{"name":"","type":"uint8","internalType":"uint8"}],"stateMutability":"view"},{"type":"function","name":"delegate","inputs":[{"name":"delegatee","type":"address","internalType":"address"}],"outputs":[],"stateMutability":"nonpayable"},{"type":"function","name":"delegateBySig","inputs":[{"name":"delegatee","type":"address","internalType":"address"},{"name":"nonce","type":"uint256","internalType":"uint256"},{"name":"expiry","type":"uint256","internalType":"uint256"},{"name":"v","type":"uint8","internalType":"uint8"},{"name":"r","type":"bytes32","internalType":"bytes32"},{"name":"s","type":"bytes32","internalType":"bytes32"}],"outputs":[],"stateMutability":"nonpayable"},{"type":"function","name":"delegates","inputs":[{"name":"account","type":"address","internalType":"address"}],"outputs":[{"name":"","type":"address","internalType":"address"}],"stateMutability":"view"},{"type":"function","name":"eip712Domain","inputs":[],"outputs":[{"name":"fields","type":"bytes1","internalType":"bytes1"},{"name":"name","type":"string","internalType":"string"},{"name":"version","type":"string","internalType":"string"},{"name":"chainId","type":"uint256","internalType":"uint256"},{"name":"verifyingContract","type":"address","internalType":"address"},{"name":"salt","type":"bytes32","internalType":"bytes32"},{"name":"extensions","type":"uint256[]","internalType":"uint256[]"}],"stateMutability":"view"},{"type":"function","name":"getPastTotalSupply","inputs":[{"name":"timepoint","type":"uint256","internalType":"uint256"}],"outputs":[{"name":"","type":"uint256","internalType":"uint256"}],"stateMutability":"view"},{"type":"function","name":"getPastVotes","inputs":[{"name":"account","type":"address","internalType":"address"},{"name":"timepoint","type":"uint256","internalType":"uint256"}],"outputs":[{"name":"","type":"uint256","internalType":"uint256"}],"stateMutability":"view"},{"type":"function","name":"getVotes","inputs":[{"name":"account","type":"address","internalType":"address"}],"outputs":[{"name":"","type":"uint256","internalType":"uint256"}],"stateMutability":"view"},{"type":"function","name":"name","inputs":[],"outputs":[{"name":"","type":"string","internalType":"string"}],"stateMutability":"view"},{"type":"function","name":"nonces","inputs":[{"name":"owner","type":"address","internalType":"address"}],"outputs":[{"name":"","type":"uint256","internalType":"uint256"}],"stateMutability":"view"},{"type":"function","name":"numCheckpoints","inputs":[{"name":"account","type":"address","internalType":"address"}],"outputs":[{"name":"","type":"uint32","internalType":"uint32"}],"stateMutability":"view"},{"type":"function","name":"permit","inputs":[{"name":"owner","type":"address","internalType":"address"},{"name":"spender","type":"address","internalType":"address"},{"name":"value","type":"uint256","internalType":"uint256"},{"name":"deadline","type":"uint256","internalType":"uint256"},{"name":"v","type":"uint8","internalType":"uint8"},{"name":"r","type":"bytes32","internalType":"bytes32"},{"name":"s","type":"bytes32","internalType":"bytes32"}],"outputs":[],"stateMutability":"nonpayable"},{"type":"function","name":"symbol","inputs":[],"outputs":[{"name":"","type":"string","internalType":"string"}],"stateMutability":"view"},{"type":"function","name":"totalSupply","inputs":[],"outputs":[{"name":"","type":"uint256","internalType":"uint256"}],"stateMutability":"view"},{"type":"function","name":"transfer","inputs":[{"name":"to","type":"address","internalType":"address"},{"name":"value","type":"uint256","internalType":"uint256"}],"outputs":[{"name":"","type":"bool","internalType":"bool"}],"stateMutability":"nonpayable"},{"type":"function","name":"transferFrom","inputs":[{"name":"from","type":"address","internalType":"address"},{"name":"to","type":"address","internalType":"address"},{"name":"value","type":"uint256","internalType":"uint256"}],"outputs":[{"name":"","type":"bool","internalType":"bool"}],"stateMutability":"nonpayable"},{"type":"event","name":"Approval","inputs":[{"name":"owner","type":"address","indexed":true,"internalType":"address"},{"name":"spender","type":"address","indexed":true,"internalType":"address"},{"name":"value","type":"uint256","indexed":false,"internalType":"uint256"}],"anonymous":false},{"type":"event","name":"DelegateChanged","inputs":[{"name":"delegator","type":"address","indexed":true,"internalType":"address"},{"name":"fromDelegate","type":"address","indexed":true,"internalType":"address"},{"name":"toDelegate","type":"address","indexed":true,"internalType":"address"}],"anonymous":false},{"type":"event","name":"DelegateVotesChanged","inputs":[{"name":"delegate","type":"address","indexed":true,"internalType":"address"},{"name":"previousVotes","type":"uint256","indexed":false,"internalType":"uint256"},{"name":"newVotes","type":"uint256","indexed":false,"internalType":"uint256"}],"anonymous":false},{"type":"event","name":"EIP712DomainChanged","inputs":[],"anonymous":false},{"type":"event","name":"Transfer","inputs":[{"name":"from","type":"address","indexed":true,"internalType":"address"},{"name":"to","type":"address","indexed":true,"internalType":"address"},{"name":"value","type":"uint256","indexed":false,"internalType":"uint256"}],"anonymous":false},{"type":"error","name":"CheckpointUnorderedInsertion","inputs":[]},{"type":"error","name":"ECDSAInvalidSignature","inputs":[]},{"type":"error","name":"ECDSAInvalidSignatureLength","inputs":[{"name":"length","type":"uint256","internalType":"uint256"}]},{"type":"error","name":"ECDSAInvalidSignatureS","inputs":[{"name":"s","type":"bytes32","internalType":"bytes32"}]},{"type":"error","name":"ERC20ExceededSafeSupply","inputs":[{"name":"increasedSupply","type":"uint256","internalType":"uint256"},{"name":"cap","type":"uint256","internalType":"uint256"}]},{"type":"error","name":"ERC20InsufficientAllowance","inputs":[{"name":"spender","type":"address","internalType":"address"},{"name":"allowance","type":"uint256","internalType":"uint256"},{"name":"needed","type":"uint256","internalType":"uint256"}]},{"type":"error","name":"ERC20InsufficientBalance","inputs":[{"name":"sender","type":"address","internalType":"address"},{"name":"balance","type":"uint256","internalType":"uint256"},{"name":"needed","type":"uint256","internalType":"uint256"}]},{"type":"error","name":"ERC20InvalidApprover","inputs":[{"name":"approver","type":"address","internalType":"address"}]},{"type":"error","name":"ERC20InvalidReceiver","inputs":[{"name":"receiver","type":"address","internalType":"address"}]},{"type":"error","name":"ERC20InvalidSender","inputs":[{"name":"sender","type":"address","internalType":"address"}]},{"type":"error","name":"ERC20InvalidSpender","inputs":[{"name":"spender","type":"address","internalType":"address"}]},{"type":"error","name":"ERC2612ExpiredSignature","inputs":[{"name":"deadline","type":"uint256","internalType":"uint256"}]},{"type":"error","name":"ERC2612InvalidSigner","inputs":[{"name":"signer","type":"address","internalType":"address"},{"name":"owner","type":"address","internalType":"address"}]},{"type":"error","name":"ERC5805FutureLookup","inputs":[{"name":"timepoint","type":"uint256","internalType":"uint256"},{"name":"clock","type":"uint48","internalType":"uint48"}]},{"type":"error","name":"ERC6372InconsistentClock","inputs":[]},{"type":"error","name":"InvalidAccountNonce","inputs":[{"name":"account","type":"address","internalType":"address"},{"name":"currentNonce","type":"uint256","internalType":"uint256"}]},{"type":"error","name":"InvalidShortString","inputs":[]},{"type":"error","name":"SafeCastOverflowedUintDowncast","inputs":[{"name":"bits","type":"uint8","internalType":"uint8"},{"name":"value","type":"uint256","internalType":"uint256"}]},{"type":"error","name":"StringTooLong","inputs":[{"name":"str","type":"string","internalType":"string"}]},{"type":"error","name":"VotesExpiredSignature","inputs":[{"name":"expiry","type":"uint256","internalType":"uint256"}]}],"bytecode":{"object":"0x610160604052346100d457612b6e803803809161001b826100ec565b610160396080816101600191126100d4578061017f12156100d45760405161004281610118565b80916101e0116100d457610160915b6101e083106100b457610063826102df565b604051611bb39081610f5b82396080518161107a015260a05181611137015260c05181611044015260e051816110c9015261010051816110ef015261012051816107560152610140518161077f0152f35b82516001600160a01b03811681036100d457815260209283019201610051565b5f80fd5b634e487b7160e01b5f52604160045260245ffd5b610160601f91909101601f19168101906001600160401b0382119082101761011357604052565b6100d8565b608081019081106001600160401b0382111761011357604052565b601f909101601f19168101906001600160401b0382119082101761011357604052565b60405190610165604083610133565b565b60405190610176604083610133565b60018252565b6040519061018b604083610133565b601382527f4167656e7420436f756e63696c20546f6b656e000000000000000000000000006020830152565b156101be57565b60405162461bcd60e51b815260206004820152602360248201525f516020612b2e5f395f51905f526044820152625b305d60e81b6064820152608490fd5b1561020357565b60405162461bcd60e51b815260206004820152602360248201525f516020612b2e5f395f51905f526044820152625b315d60e81b6064820152608490fd5b1561024857565b60405162461bcd60e51b815260206004820152602360248201525f516020612b2e5f395f51905f526044820152625b325d60e81b6064820152608490fd5b1561028d57565b60405162461bcd60e51b815260206004820152602360248201525f516020612b2e5f395f51905f526044820152625b335d60e81b6064820152608490fd5b634e487b7160e01b5f52601160045260245ffd5b610400610165916103216102f161017c565b6102f961017c565b60405191610308604084610133565b600783526610d3d55390d25360ca1b6020840152610411565b8051610337906001600160a01b031615156101b7565b6103c06103ef60208301805161036890610361906001600160a01b03165b6001600160a01b031690565b15156101fc565b6103c06103de6040860180519093906103949061038d906001600160a01b0316610355565b1515610241565b6103c06103cd6060890180519099906103c0906103b9906001600160a01b0316610355565b1515610286565b516001600160a01b031690565b6954b40b1f852bda0000009061072d565b693f870857a3e0e38000009061072d565b692a5a058fc295ed0000009061072d565b69152d02c7e14af68000009061072d565b91909161041c610167565b603160f81b60208201908152845190949193916001600160401b038211610113576104518261044c60035461055f565b610597565b602090601f83116001146104d85791806104859261048d95945f926104cd575b50508160011b915f199060031b1c19161790565b600355610654565b610496816107d9565b610120526104a3826108ce565b610140526020815191012060e052519020610100524660a0526104c46109c0565b6080523060c052565b015190505f80610471565b60035f52601f19831691907fc2575a0e9e593c00f959f8c92f12db2869c3395a3b0502d05e2516446f71f85b925f5b818110610547575091600193918561048d9796941061052f575b505050811b01600355610654565b01515f1960f88460031b161c191690555f8080610521565b92936020600181928786015181550195019301610507565b90600182811c9216801561058d575b602083101461057957565b634e487b7160e01b5f52602260045260245ffd5b91607f169161056e565b90601f82116105a4575050565b8082116105af575050565b60035f5260205f206020601f830160051c92106105ee575b81601f9101920160051c03905f5b8281106105e157505050565b5f828201556001016105d5565b5f91506105c7565b919091601f8311610607575b505050565b81831161061357505050565b5f5260205f206020601f830160051c921061064c575b81601f9101920160051c03905f5b82811015610602575f82820155600101610637565b5f9150610629565b80519091906001600160401b0381116101135761067d8161067660045461055f565b60046105f6565b602092601f82116001146106b1576106ac929382915f926104cd5750508160011b915f199060031b1c19161790565b600455565b60045f52601f198216937f8a35acfbc15ff81a39ae7d344fd709f28e8600b4aa8c65c6b64bfe7fe36bd19b915f5b86811061071557508360019596106106fd575b505050811b01600455565b01515f1960f88460031b161c191690555f80806106f2565b919260206001819286850151815501940192016106df565b91906001600160a01b03831680156107c6576002548281018091116107c1576002555f81815260208181526040808320805486019055518481527fddf252ad1be2c89b69c2b068fc378daa952ba7f163c4a11628f55a4df523b3ef9190a3600254926001600160d01b038085116107aa5750610165929350610a89565b630e58ae9360e11b5f52600485905260245260445ffd5b6102cb565b63ec442f0560e01b5f525f60045260245ffd5b908151602081105f146107f45750906107f190610a1e565b90565b6001600160401b038111610113576108188161081160055461055f565b60056105f6565b602092601f821160011461084f57610847929382915f926104cd5750508160011b915f199060031b1c19161790565b60055560ff90565b60055f52601f198216937f036b6384b5eca791c62761152d0c79bb0604c104a5fb6f4eb0703f3154bb3db0915f5b8681106108b6575083600195961061089e575b505050811b0160055560ff90565b01515f1960f88460031b161c191690555f8080610890565b9192602060018192868501518155019401920161087d565b908151602081105f146108e65750906107f190610a1e565b6001600160401b0381116101135761090a8161090360065461055f565b60066105f6565b602092601f821160011461094157610939929382915f926104cd5750508160011b915f199060031b1c19161790565b60065560ff90565b60065f52601f198216937ff652222313e28459528d920b65115c16c04f3efc82aaedc97be59f3f377c0d3f915f5b8681106109a85750836001959610610990575b505050811b0160065560ff90565b01515f1960f88460031b161c191690555f8080610982565b9192602060018192868501518155019401920161096f565b60e051610100516040519060208201927f8b73c3c69bb8fe3d512ecc4cf759cc79239f7b179b0ffacaa9a75d522b39400f8452604083015260608201524660808201523060a082015260a08152610a1860c082610133565b51902090565b601f815111610a49576020815191015160208210610a3a571790565b5f198260200360031b1b161790565b604460209160405192839163305a27a960e01b83528160048401528051918291826024860152018484015e5f828201840152601f01601f19168101030190fd5b90610a9381610b88565b9165ffffffffffff4311610b7057600a5480610b3a5750610acd610abd610165945f5b6001610efe565b65ffffffffffff4316600a610e28565b50506001600160a01b03168015610b22575b60086020527f5eff886ea0ce6ca488a3d6e336d6c0f75f46d19b42c06ce5ee98e42c96d256c7545f9182526040909120546001600160a01b039081169116610cb7565b610b33610b2e83610b88565b610bb9565b5050610adf565b92835f198101116107c157600a5f525f516020612b0e5f395f51905f529093015461016593610acd91610abd919060301c610ab6565b6306dfcc6560e41b5f5260306004524360245260445ffd5b6001600160d01b038111610ba2576001600160d01b031690565b6306dfcc6560e41b5f5260d060045260245260445ffd5b65ffffffffffff4311610b7057600a5480610be35750610abd610bdf915f5b6002610efe565b9091565b805f198101116107c157600a5f525f516020612b0e5f395f51905f520154610bdf91610abd9160301c610bd8565b65ffffffffffff4311610b7057805480610c455750610c35610bdf925f6002610efe565b9065ffffffffffff431690610e28565b805f198101116107c1575f82815260209020015f190154610bdf92610c359160301c610bd8565b65ffffffffffff4311610b7057805480610c905750610c35610bdf925f6001610efe565b805f198101116107c1575f82815260209020015f190154610bdf92610c359160301c610ab6565b6001600160a01b03808316939291908116908185141580610daa575b610cdf575b5050505050565b81610d50575b505082610cf4575b8080610cd8565b6001600160a01b03165f9081526009602052604090205f516020612b4e5f395f51905f5291610d2d91610d279091610b88565b90610c6c565b604080516001600160d01b039384168152919092166020820152a25f8080610ced565b6001600160a01b03165f9081526009602052604090205f516020612b4e5f395f51905f5290610d8890610d8286610b88565b90610c11565b604080516001600160d01b039384168152919092166020820152a25f80610ce5565b50831515610cd3565b5f198101919082116107c157565b908154680100000000000000008110156101135760018101808455811015610e14575f9283526020928390208251929093015160301b65ffffffffffff191665ffffffffffff9290921691909117910155565b634e487b7160e01b5f52603260045260245ffd5b80549293928015610ed457610e3f610e4a91610db3565b825f5260205f200190565b8054603081901c9365ffffffffffff91821692918116808411610ec557879303610e915750610e8d92509065ffffffffffff82549181199060301b169116179055565b9190565b915050610e8d91610eb1610ea3610156565b65ffffffffffff9093168352565b6001600160d01b0386166020830152610dc1565b632520601d60e01b5f5260045ffd5b5090610ef991610ee5610ea3610156565b6001600160d01b0385166020830152610dc1565b5f9190565b91909180600114610f4057600214610f2457634e487b7160e01b5f52605160045260245ffd5b6001600160d01b03908116918116919091039081116107c15790565b506001600160d01b03918216908216019081116107c1579056fe60806040526004361015610011575f80fd5b5f3560e01c806306fdde03146101d4578063095ea7b3146101cf5780630acddd90146101ca57806318160ddd146101c557806323b872dd146101c0578063313ce567146101bb57806331e2c843146101b65780633644e515146101b15780633a46b1a8146101ac5780634bf5d7e9146101a757806352ba8ed1146101a2578063587cde1e1461019d5780635c19a95c146101985780636fcfff451461019357806370a082311461018e5780637ecebe001461018957806384b0196e146101845780638e539e8c1461017f578063902d55a51461017a57806391ddadf4146101755780639202e9a51461017057806395d89b411461016b5780639ab24eb014610166578063a9059cbb14610161578063c3cda5201461015c578063d505accf14610157578063dd62ed3e146101525763f1127ed81461014d575f80fd5b610d63565b610d0c565b610be8565b610ad9565b610a93565b610a4c565b6109a7565b610983565b610958565b610934565b61083b565b61073e565b610706565b6106ce565b61066c565b610648565b610608565b6105e4565b610554565b6104bf565b61049d565b610479565b61045e565b6103bf565b6103a2565b61037e565b61031b565b610211565b805180835260209291819084018484015e5f828201840152601f01601f1916010190565b90602061020e9281815201906101d9565b90565b346102eb575f3660031901126102eb576040515f60035461023181610e15565b80845290600181169081156102c75750600114610269575b6102658361025981850382610f03565b604051918291826101fd565b0390f35b60035f9081527fc2575a0e9e593c00f959f8c92f12db2869c3395a3b0502d05e2516446f71f85b939250905b8082106102ad57509091508101602001610259610249565b919260018160209254838588010152019101909291610295565b60ff191660208086019190915291151560051b840190910191506102599050610249565b5f80fd5b600435906001600160a01b03821682036102eb57565b602435906001600160a01b03821682036102eb57565b346102eb5760403660031901126102eb576103416103376102ef565b6024359033611319565b602060405160018152f35b634e487b7160e01b5f52601160045260245ffd5b811561036a570490565b634e487b7160e01b5f52601260045260245ffd5b346102eb575f3660031901126102eb576020604051692a5a058fc295ed0000008152f35b346102eb575f3660031901126102eb576020600254604051908152f35b346102eb5760603660031901126102eb576103d86102ef565b6103e0610305565b6001600160a01b0382165f908152600160208181526040808420338552909152909120549260443592918401610427575b61041b9350610f4e565b60405160018152602090f35b8284106104435761043e8361041b950333836113b4565b610411565b8284637dc7a0d960e11b5f523360045260245260445260645ffd5b346102eb575f3660031901126102eb57602060405160128152f35b346102eb575f3660031901126102eb57602060405169152d02c7e14af68000008152f35b346102eb575f3660031901126102eb5760206104b7611041565b604051908152f35b346102eb5760403660031901126102eb576104d86102ef565b60243565ffffffffffff6104eb4361115d565b16918282101561053e576001600160a01b03165f90815260096020526040902061026592506001600160d01b039161052d91906105279061115d565b906111a8565b604051911681529081906020820190565b50637669fc0f60e11b5f5260045260245260445ffd5b346102eb575f3660031901126102eb5761056d4361115d565b65ffffffffffff8061057e4361115d565b169116036105d557610265604051610597604082610f03565b601d81527f6d6f64653d626c6f636b6e756d6265722666726f6d3d64656661756c7400000060208201526040519182916020835260208301906101d9565b6301bfc1c560e61b5f5260045ffd5b346102eb575f3660031901126102eb5760206040516954b40b1f852bda0000008152f35b346102eb5760203660031901126102eb576001600160a01b036106296102ef565b165f526008602052602060018060a01b0360405f205416604051908152f35b346102eb5760203660031901126102eb5761066a6106646102ef565b33611239565b005b346102eb5760203660031901126102eb576001600160a01b0361068d6102ef565b165f52600960205260405f205463ffffffff81116106b75760405163ffffffff9091168152602090f35b6306dfcc6560e41b5f52602060045260245260445ffd5b346102eb5760203660031901126102eb5760206104b76106ec6102ef565b6001600160a01b03165f9081526020819052604090205490565b346102eb5760203660031901126102eb576001600160a01b036107276102ef565b165f526007602052602060405f2054604051908152f35b346102eb575f3660031901126102eb576107e261077a7f00000000000000000000000000000000000000000000000000000000000000006116de565b6107a37f000000000000000000000000000000000000000000000000000000000000000061173e565b60206040516107b28282610f03565b5f8152816107f081830194601f198301368737604051978897600f60f81b895260e0858a015260e08901906101d9565b9087820360408901526101d9565b914660608701523060808701525f60a087015285830360c087015251918281520192915f5b82811061082457505050500390f35b835185528695509381019392810192600101610815565b346102eb5760203660031901126102eb5760043565ffffffffffff61085f4361115d565b16908181101561091f576108729061115d565b600a54905f8291600584116108c6575b61088e9350600a611558565b806108aa575060205f5b6040516001600160d01b039091168152f35b6108b560209161118c565b600a5f52815f20015460301c610898565b91926108d1816113fa565b810390811161091a5761088e93600a5f5265ffffffffffff8260205f2001541665ffffffffffff8516105f14610908575091610882565b9291506109149061119a565b90610882565b61034c565b637669fc0f60e11b5f5260045260245260445ffd5b346102eb575f3660031901126102eb57602060405169d3c21bcecceda10000008152f35b346102eb575f3660031901126102eb5760206109734361115d565b65ffffffffffff60405191168152f35b346102eb575f3660031901126102eb576020604051693f870857a3e0e38000008152f35b346102eb575f3660031901126102eb576040515f6004546109c781610e15565b80845290600181169081156102c757506001146109ee576102658361025981850382610f03565b60045f9081527f8a35acfbc15ff81a39ae7d344fd709f28e8600b4aa8c65c6b64bfe7fe36bd19b939250905b808210610a3257509091508101602001610259610249565b919260018160209254838588010152019101909291610a1a565b346102eb5760203660031901126102eb576001600160a01b03610a6d6102ef565b165f526009602052602060018060d01b03610a8a60405f206112ba565b16604051908152f35b346102eb5760403660031901126102eb57610341610aaf6102ef565b6024359033610f4e565b6064359060ff821682036102eb57565b6084359060ff821682036102eb57565b346102eb5760c03660031901126102eb57610af26102ef565b60243590604435610b01610ab9565b6084359060a43592804211610bd65791610b869391610b78610b7d9460405160208101917fe48329057bfd03d55e49b547132e39cffd9c1820ad7b9d4c5307691425d15adf835260018060a01b038a1660408301528a6060830152608082015260808152610b7060a082610f03565b5190206112e4565b611775565b90929192611820565b6001600160a01b0381165f908152600760205260409020805460018101909155809303610bb75761066a9250611239565b90506301d4b62360e61b5f5260018060a01b031660045260245260445ffd5b632341d78760e11b5f5260045260245ffd5b346102eb5760e03660031901126102eb57610c016102ef565b610c09610305565b6044359060643592610c19610ac9565b60a43560c43590864211610cf9576001600160a01b0384165f908152600760205260409020805460018101909155610cbe9390610cb9909860405160208101917f6e71edae12b1b97f4d1f60370fef10105fa2faae0126114a169c64845d6126c9835260018060a01b0389169b8c604084015260018060a01b038b1660608401528b608084015260a083015260c082015260c08152610b7060e082610f03565b61130a565b936001600160a01b03851603610cd85761066a9350611319565b6325c0072360e11b5f526001600160a01b038085166004521660245260445ffd5b8663313c898160e11b5f5260045260245ffd5b346102eb5760403660031901126102eb576020610d5a610d2a6102ef565b610d32610305565b6001600160a01b039182165f9081526001855260408082209290931681526020919091522090565b54604051908152f35b346102eb5760403660031901126102eb57610d7c6102ef565b6024359063ffffffff821682036102eb5761026591610dcb91610d9d610f36565b50610da6610f36565b506001600160a01b03165f908152600960205260409020610dc5610f36565b5061189c565b5060405190610dd982610ee2565b5465ffffffffffff811680835260309190911c60209283019081526040805192835290516001600160d01b031692820192909252918291820190565b90600182811c92168015610e43575b6020831014610e2f57565b634e487b7160e01b5f52602260045260245ffd5b91607f1691610e24565b5f9291815491610e5c83610e15565b8083529260018116908115610eb15750600114610e7857505050565b5f9081526020812093945091925b838310610e97575060209250010190565b600181602092949394548385870101520191019190610e86565b915050602093945060ff929192191683830152151560051b010190565b634e487b7160e01b5f52604160045260245ffd5b6040810190811067ffffffffffffffff821117610efe57604052565b610ece565b90601f8019910116810190811067ffffffffffffffff821117610efe57604052565b60405190610f34604083610f03565b565b60405190610f4382610ee2565b5f6020838281520152565b6001600160a01b03811693929190841561102e576001600160a01b038216801561101b576001600160a01b0382165f90815260208190526040902054848110611000579584610f34969703610fb28460018060a01b03165f525f60205260405f2090565b556001600160a01b0384165f908152602081815260409182902080548801905590518681527fddf252ad1be2c89b69c2b068fc378daa952ba7f163c4a11628f55a4df523b3ef9190a3611997565b84908763391434e360e21b5f5260045260245260445260645ffd5b63ec442f0560e01b5f525f60045260245ffd5b634b637e8f60e11b5f525f60045260245ffd5b307f00000000000000000000000000000000000000000000000000000000000000006001600160a01b03161480611134575b1561109c577f000000000000000000000000000000000000000000000000000000000000000090565b60405160208101907f8b73c3c69bb8fe3d512ecc4cf759cc79239f7b179b0ffacaa9a75d522b39400f82527f000000000000000000000000000000000000000000000000000000000000000060408201527f000000000000000000000000000000000000000000000000000000000000000060608201524660808201523060a082015260a0815261112e60c082610f03565b51902090565b507f00000000000000000000000000000000000000000000000000000000000000004614611073565b65ffffffffffff81116111755765ffffffffffff1690565b6306dfcc6560e41b5f52603060045260245260445ffd5b5f1981019190821161091a57565b906001820180921161091a57565b908154905f8291600584116111e6575b6111c3935084611558565b806111ce5750505f90565b6111d79061118c565b905f5260205f20015460301c90565b91926111f1816113fa565b810390811161091a576111c393855f5265ffffffffffff8260205f2001541665ffffffffffff8516105f146112275750916111b8565b9291506112339061119a565b906111b8565b6001600160a01b038181165f81815260086020526040812080548685166001600160a01b031982168117909255610f34969416946112b49390928691907f3134e8a2e6d97e929a7e54011ea5485d7d196dd5f0ba4d4ef95803e8e3fc257f9080a46001600160a01b03165f9081526020819052604090205490565b916115bc565b805490816112c85750505f90565b815f1981011161091a575f525f199060205f2001015460301c90565b6042906112ef611041565b906040519161190160f01b8352600283015260228201522090565b9161020e9391610b7d93611775565b6001600160a01b03169081156113a1576001600160a01b03811692831561138e57806113817f8c5be1e5ebec7d5bd14f71427d1e84f3dd0314c0f7b2291e5b200ac8c7c3b92593855f52600160205260405f209060018060a01b03165f5260205260405f2090565b55604051908152602090a3565b634a1406b160e11b5f525f60045260245ffd5b63e602df0560e01b5f525f60045260245ffd5b6001600160a01b03169081156113a1576001600160a01b0381161561138e576113f7915f52600160205260405f209060018060a01b03165f5260205260405f2090565b55565b600181111561020e57806001600160801b82101561151b575b6114c16114b76114ad6114a361149961148f61147e6114c89760048a600160401b6114cd9c101561150e575b640100000000811015611501575b620100008110156114f4575b6101008110156114e7575b60108110156114da575b10156114d2575b60030260011c90565b611488818b610360565b0160011c90565b611488818a610360565b6114888189610360565b6114888188610360565b6114888187610360565b6114888186610360565b8093610360565b821190565b900390565b60011b611475565b60041c9160021b9161146e565b60081c9160041b91611464565b60101c9160081b91611459565b60201c9160101b9161144d565b60401c9160201b9161143f565b50506114cd6114c86114c16114b76114ad6114a361149961148f61147e6115428a60801c90565b9850600160401b97506114139650505050505050565b91905b8382106115685750505090565b9091928083169080841860011c820180921161091a57845f5265ffffffffffff8260205f2001541665ffffffffffff8416105f146115aa5750925b919061155b565b9392506115b69061119a565b916115a3565b6001600160a01b038083169392919081169081851415806116d5575b6115e4575b5050505050565b81611668575b5050826115f9575b80806115dd565b6001600160a01b03165f9081526009602052604090207fdec2bacdd2f05b59de34da9b523dff8be42e5e38e818c82fdb0bae774387a724916116459161163f90916118c5565b9061192e565b604080516001600160d01b039384168152919092166020820152a25f80806115f2565b6001600160a01b03165f9081526009602052604090207fdec2bacdd2f05b59de34da9b523dff8be42e5e38e818c82fdb0bae774387a724906116b3906116ad866118c5565b906118f6565b604080516001600160d01b039384168152919092166020820152a25f806115ea565b508315156115d8565b60ff81146117245760ff811690601f82116117155760405191611702604084610f03565b6020808452838101919036833783525290565b632cd44ac360e21b5f5260045ffd5b5060405161020e81611737816005610e4d565b0382610f03565b60ff81146117625760ff811690601f82116117155760405191611702604084610f03565b5060405161020e81611737816006610e4d565b91907f7fffffffffffffffffffffffffffffff5d576e7357a4501ddfe92f46681b20a084116117f7579160209360809260ff5f9560405194855216868401526040830152606082015282805260015afa156117ec575f516001600160a01b038116156117e257905f905f90565b505f906001905f90565b6040513d5f823e3d90fd5b5050505f9160039190565b6004111561180c57565b634e487b7160e01b5f52602160045260245ffd5b61182981611802565b80611832575050565b61183b81611802565b600181036118525763f645eedf60e01b5f5260045ffd5b61185b81611802565b60028103611876575063fce698f760e01b5f5260045260245ffd5b80611882600392611802565b1461188a5750565b6335e2f38360e21b5f5260045260245ffd5b80548210156118b1575f5260205f2001905f90565b634e487b7160e01b5f52603260045260245ffd5b6001600160d01b0381116118df576001600160d01b031690565b6306dfcc6560e41b5f5260d060045260245260445ffd5b906119004361115d565b9061190a836112ba565b6001600160d01b03918216908216039190821161091a5761192a92611aa7565b9091565b906119384361115d565b90611942836112ba565b6001600160d01b03918216908216019190821161091a5761192a92611aa7565b61196b4361115d565b90611976600a6112ba565b6001600160d01b039182169082160390811161091a5761192a91600a611aa7565b9091906001600160a01b031680156119fe575b610f34926001600160a01b03169081156119e6575b5f90815260086020526040808220549282529020546001600160a01b0390811691166115bc565b6119f76119f2846118c5565b611962565b50506119bf565b611a07826118c5565b92611a114361115d565b93611a1c600a6112ba565b6001600160d01b03918216908216019490851161091a57610f3494611a4291600a611aa7565b90505092506119aa565b8054600160401b811015610efe57611a699160018201815561189c565b611a9457815160209092015160301b65ffffffffffff191665ffffffffffff92909216919091179055565b634e487b7160e01b5f525f60045260245ffd5b80549293928015611b5357611abe611ac99161118c565b825f5260205f200190565b8054603081901c9365ffffffffffff91821692918116808411611b4457879303611b105750611b0c92509065ffffffffffff82549181199060301b169116179055565b9190565b915050611b0c91611b30611b22610f25565b65ffffffffffff9093168352565b6001600160d01b0386166020830152611a4c565b632520601d60e01b5f5260045ffd5b5090611b7891611b64611b22610f25565b6001600160d01b0385166020830152611a4c565b5f919056fea2646970667358221220b76f90fc3b354223d80e78435f02020ea36090ac560b1759fbb5185d1703dbb464736f6c63430008210033c65a7bb8d6351c1cf70c95a316cc6a92839c986682d98bc35f958f4883f9d2a7436f756e63696c546f6b656e3a207a65726f2061646472657373206167656e74dec2bacdd2f05b59de34da9b523dff8be42e5e38e818c82fdb0bae774387a724","linkReferences":{}},"methodIdentifiers":{"CLOCK_MODE()":"4bf5d7e9","DOMAIN_SEPARATOR()":"3644e515","SHARE_AGENT_0()":"52ba8ed1","SHARE_AGENT_1()":"9202e9a5","SHARE_AGENT_2()":"0acddd90","SHARE_AGENT_3()":"31e2c843","TOTAL_SUPPLY()":"902d55a5","allowance(address,address)":"dd62ed3e","approve(address,uint256)":"095ea7b3","balanceOf(address)":"70a08231","checkpoints(address,uint32)":"f1127ed8","clock()":"91ddadf4","decimals()":"313ce567","delegate(address)":"5c19a95c","delegateBySig(address,uint256,uint256,uint8,bytes32,bytes32)":"c3cda520","delegates(address)":"587cde1e","eip712Domain()":"84b0196e","getPastTotalSupply(uint256)":"8e539e8c","getPastVotes(address,uint256)":"3a46b1a8","getVotes(address)":"9ab24eb0","name()":"06fdde03","nonces(address)":"7ecebe00","numCheckpoints(address)":"6fcfff45","permit(address,address,uint256,uint256,uint8,bytes32,bytes32)":"d505accf","symbol()":"95d89b41","totalSupply()":"18160ddd","transfer(address,uint256)":"a9059cbb","transferFrom(address,address,uint256)":"23b872dd"},"id":71}