{"abi":[{"type":"constructor","inputs":[{"name":"proposers","type":"address[]","internalType":"address[]"},{"name":"executors","type":"address[]","internalType":"address[]"},{"name":"admin","type":"address","internalType":"address"}],"stateMutability":"nonpayable"},{"type":"receive","stateMutability":"payable"},{"type":"function","name":"CANCELLER_ROLE","inputs":[],"outputs":[{"name":"","type":"bytes32","internalType":"bytes32"}],"stateMutability":"view"},{"type":"function","name":"DEFAULT_ADMIN_ROLE","inputs":[],"outputs":[{"name":"","type":"bytes32","internalType":"bytes32"}],"stateMutability":"view"},{"type":"function","name":"EXECUTOR_ROLE","inputs":[],"outputs":[{"name":"","type":"bytes32","internalType":"bytes32"}],"stateMutability":"view"},{"type":"function","name":"MIN_DELAY","inputs":[],"outputs":[{"name":"","type":"uint256","internalType":"uint256"}],"stateMutability":"view"},{"type":"function","name":"PROPOSER_ROLE","inputs":[],"outputs":[{"name":"","type":"bytes32","internalType":"bytes32"}],"stateMutability":"view"},{"type":"function","name":"cancel","inputs":[{"name":"id","type":"bytes32","internalType":"bytes32"}],"outputs":[],"stateMutability":"nonpayable"},{"type":"function","name":"execute","inputs":[{"name":"target","type":"address","internalType":"address"},{"name":"value","type":"uint256","internalType":"uint256"},{"name":"payload","type":"bytes","internalType":"bytes"},{"name":"predecessor","type":"bytes32","internalType":"bytes32"},{"name":"salt","type":"bytes32","internalType":"bytes32"}],"outputs":[],"stateMutability":"payable"},{"type":"function","name":"executeBatch","inputs":[{"name":"targets","type":"address[]","internalType":"address[]"},{"name":"values","type":"uint256[]","internalType":"uint256[]"},{"name":"payloads","type":"bytes[]","internalType":"bytes[]"},{"name":"predecessor","type":"bytes32","internalType":"bytes32"},{"name":"salt","type":"bytes32","internalType":"bytes32"}],"outputs":[],"stateMutability":"payable"},{"type":"function","name":"getMinDelay","inputs":[],"outputs":[{"name":"","type":"uint256","internalType":"uint256"}],"stateMutability":"view"},{"type":"function","name":"getOperationState","inputs":[{"name":"id","type":"bytes32","internalType":"bytes32"}],"outputs":[{"name":"","type":"uint8","internalType":"enum TimelockController.OperationState"}],"stateMutability":"view"},{"type":"function","name":"getRoleAdmin","inputs":[{"name":"role","type":"bytes32","internalType":"bytes32"}],"outputs":[{"name":"","type":"bytes32","internalType":"bytes32"}],"stateMutability":"view"},{"type":"function","name":"getTimestamp","inputs":[{"name":"id","type":"bytes32","internalType":"bytes32"}],"outputs":[{"name":"","type":"uint256","internalType":"uint256"}],"stateMutability":"view"},{"type":"function","name":"grantRole","inputs":[{"name":"role","type":"bytes32","internalType":"bytes32"},{"name":"account","type":"address","internalType":"address"}],"outputs":[],"stateMutability":"nonpayable"},{"type":"function","name":"hasRole","inputs":[{"name":"role","type":"bytes32","internalType":"bytes32"},{"name":"account","type":"address","internalType":"address"}],"outputs":[{"name":"","type":"bool","internalType":"bool"}],"stateMutability":"view"},{"type":"function","name":"hashOperation","inputs":[{"name":"target","type":"address","internalType":"address"},{"name":"value","type":"uint256","internalType":"uint256"},{"name":"data","type":"bytes","internalType":"bytes"},{"name":"predecessor","type":"bytes32","internalType":"bytes32"},{"name":"salt","type":"bytes32","internalType":"bytes32"}],"outputs":[{"name":"","type":"bytes32","internalType":"bytes32"}],"stateMutability":"pure"},{"type":"function","name":"hashOperationBatch","inputs":[{"name":"targets","type":"address[]","internalType":"address[]"},{"name":"values","type":"uint256[]","internalType":"uint256[]"},{"name":"payloads","type":"bytes[]","internalType":"bytes[]"},{"name":"predecessor","type":"bytes32","internalType":"bytes32"},{"name":"salt","type":"bytes32","internalType":"bytes32"}],"outputs":[{"name":"","type":"bytes32","internalType":"bytes32"}],"stateMutability":"pure"},{"type":"function","name":"isOperation","inputs":[{"name":"id","type":"bytes32","internalType":"bytes32"}],"outputs":[{"name":"","type":"bool","internalType":"bool"}],"stateMutability":"view"},{"type":"function","name":"isOperationDone","inputs":[{"name":"id","type":"bytes32","internalType":"bytes32"}],"outputs":[{"name":"","type":"bool","internalType":"bool"}],"stateMutability":"view"},{"type":"function","name":"isOperationPending","inputs":[{"name":"id","type":"bytes32","internalType":"bytes32"}],"outputs":[{"name":"","type":"bool","internalType":"bool"}],"stateMutability":"view"},{"type":"function","name":"isOperationReady","inputs":[{"name":"id","type":"bytes32","internalType":"bytes32"}],"outputs":[{"name":"","type":"bool","internalType":"bool"}],"stateMutability":"view"},{"type":"function","name":"onERC1155BatchReceived","inputs":[{"name":"","type":"address","internalType":"address"},{"name":"","type":"address","internalType":"address"},{"name":"","type":"uint256[]","internalType":"uint256[]"},{"name":"","type":"uint256[]","internalType":"uint256[]"},{"name":"","type":"bytes","internalType":"bytes"}],"outputs":[{"name":"","type":"bytes4","internalType":"bytes4"}],"stateMutability":"nonpayable"},{"type":"function","name":"onERC1155Received","inputs":[{"name":"","type":"address","internalType":"address"},{"name":"","type":"address","internalType":"address"},{"name":"","type":"uint256","internalType":"uint256"},{"name":"","type":"uint256","internalType":"uint256"},{"name":"","type":"bytes","internalType":"bytes"}],"outputs":[{"name":"","type":"bytes4","internalType":"bytes4"}],"stateMutability":"nonpayable"},{"type":"function","name":"onERC721Received","inputs":[{"name":"","type":"address","internalType":"address"},{"name":"","type":"address","internalType":"address"},{"name":"","type":"uint256","internalType":"uint256"},{"name":"","type":"bytes","internalType":"bytes"}],"outputs":[{"name":"","type":"bytes4","internalType":"bytes4"}],"stateMutability":"nonpayable"},{"type":"function","name":"renounceRole","inputs":[{"name":"role","type":"bytes32","internalType":"bytes32"},{"name":"callerConfirmation","type":"address","internalType":"address"}],"outputs":[],"stateMutability":"nonpayable"},{"type":"function","name":"revokeRole","inputs":[{"name":"role","type":"bytes32","internalType":"bytes32"},{"name":"account","type":"address","internalType":"address"}],"outputs":[],"stateMutability":"nonpayable"},{"type":"function","name":"schedule","inputs":[{"name":"target","type":"address","internalType":"address"},{"name":"value","type":"uint256","internalType":"uint256"},{"name":"data","type":"bytes","internalType":"bytes"},{"name":"predecessor","type":"bytes32","internalType":"bytes32"},{"name":"salt","type":"bytes32","internalType":"bytes32"},{"name":"delay","type":"uint256","internalType":"uint256"}],"outputs":[],"stateMutability":"nonpayable"},{"type":"function","name":"scheduleBatch","inputs":[{"name":"targets","type":"address[]","internalType":"address[]"},{"name":"values","type":"uint256[]","internalType":"uint256[]"},{"name":"payloads","type":"bytes[]","internalType":"bytes[]"},{"name":"predecessor","type":"bytes32","internalType":"bytes32"},{"name":"salt","type":"bytes32","internalType":"bytes32"},{"name":"delay","type":"uint256","internalType":"uint256"}],"outputs":[],"stateMutability":"nonpayable"},{"type":"function","name":"supportsInterface","inputs":[{"name":"interfaceId","type":"bytes4","internalType":"bytes4"}],"outputs":[{"name":"","type":"bool","internalType":"bool"}],"stateMutability":"view"},{"type":"function","name":"updateDelay","inputs":[{"name":"newDelay","type":"uint256","internalType":"uint256"}],"outputs":[],"stateMutability":"nonpayable"},{"type":"event","name":"CallExecuted","inputs":[{"name":"id","type":"bytes32","indexed":true,"internalType":"bytes32"},{"name":"index","type":"uint256","indexed":true,"internalType":"uint256"},{"name":"target","type":"address","indexed":false,"internalType":"address"},{"name":"value","type":"uint256","indexed":false,"internalType":"uint256"},{"name":"data","type":"bytes","indexed":false,"internalType":"bytes"}],"anonymous":false},{"type":"event","name":"CallSalt","inputs":[{"name":"id","type":"bytes32","indexed":true,"internalType":"bytes32"},{"name":"salt","type":"bytes32","indexed":false,"internalType":"bytes32"}],"anonymous":false},{"type":"event","name":"CallScheduled","inputs":[{"name":"id","type":"bytes32","indexed":true,"internalType":"bytes32"},{"name":"index","type":"uint256","indexed":true,"internalType":"uint256"},{"name":"target","type":"address","indexed":false,"internalType":"address"},{"name":"value","type":"uint256","indexed":false,"internalType":"uint256"},{"name":"data","type":"bytes","indexed":false,"internalType":"bytes"},{"name":"predecessor","type":"bytes32","indexed":false,"internalType":"bytes32"},{"name":"delay","type":"uint256","indexed":false,"internalType":"uint256"}],"anonymous":false},{"type":"event","name":"Cancelled","inputs":[{"name":"id","type":"bytes32","indexed":true,"internalType":"bytes32"}],"anonymous":false},{"type":"event","name":"MinDelayChange","inputs":[{"name":"oldDuration","type":"uint256","indexed":false,"internalType":"uint256"},{"name":"newDuration","type":"uint256","indexed":false,"internalType":"uint256"}],"anonymous":false},{"type":"event","name":"RoleAdminChanged","inputs":[{"name":"role","type":"bytes32","indexed":true,"internalType":"bytes32"},{"name":"previousAdminRole","type":"bytes32","indexed":true,"internalType":"bytes32"},{"name":"newAdminRole","type":"bytes32","indexed":true,"internalType":"bytes32"}],"anonymous":false},{"type":"event","name":"RoleGranted","inputs":[{"name":"role","type":"bytes32","indexed":true,"internalType":"bytes32"},{"name":"account","type":"address","indexed":true,"internalType":"address"},{"name":"sender","type":"address","indexed":true,"internalType":"address"}],"anonymous":false},{"type":"event","name":"RoleRevoked","inputs":[{"name":"role","type":"bytes32","indexed":true,"internalType":"bytes32"},{"name":"account","type":"address","indexed":true,"internalType":"address"},{"name":"sender","type":"address","indexed":true,"internalType":"address"}],"anonymous":false},{"type":"error","name":"AccessControlBadConfirmation","inputs":[]},{"type":"error","name":"AccessControlUnauthorizedAccount","inputs":[{"name":"account","type":"address","internalType":"address"},{"name":"neededRole","type":"bytes32","internalType":"bytes32"}]},{"type":"error","name":"FailedCall","inputs":[]},{"type":"error","name":"TimelockInsufficientDelay","inputs":[{"name":"delay","type":"uint256","internalType":"uint256"},{"name":"minDelay","type":"uint256","internalType":"uint256"}]},{"type":"error","name":"TimelockInvalidOperationLength","inputs":[{"name":"targets","type":"uint256","internalType":"uint256"},{"name":"payloads","type":"uint256","internalType":"uint256"},{"name":"values","type":"uint256","internalType":"uint256"}]},{"type":"error","name":"TimelockUnauthorizedCaller","inputs":[{"name":"caller","type":"address","internalType":"address"}]},{"type":"error","name":"TimelockUnexecutedPredecessor","inputs":[{"name":"predecessorId","type":"bytes32","internalType":"bytes32"}]},{"type":"error","name":"TimelockUnexpectedOperationState","inputs":[{"name":"operationId","type":"bytes32","internalType":"bytes32"},{"name":"expectedStates","type":"bytes32","internalType":"bytes32"}]}],"bytecode":{"object":"0x60806040523461016257611a878038038061001981610166565b9283398101906060818303126101625780516001600160401b03811161016257826100459183016101b3565b602082015190926001600160401b0382116101625761006b6040916100729385016101b3565b920161019f565b61007b30610245565b506001600160a01b038116610152575b505f5b82518110156100d8576001906100b66001600160a01b036100af838761021d565b51166102bb565b506100d1828060a01b036100ca838761021d565b511661034e565b500161008e565b505f5b815181101561010a576001906101036001600160a01b036100fc838661021d565b51166103e1565b50016100db565b620151806002557f11c24f4ead16507c69ac467fbd5e4eed5fb5c699626d2cc6d66421df253886d5604080515f8152620151806020820152a160405161157290816104758239f35b61015b90610245565b505f61008b565b5f80fd5b6040519190601f01601f191682016001600160401b0381118382101761018b57604052565b634e487b7160e01b5f52604160045260245ffd5b51906001600160a01b038216820361016257565b9080601f83011215610162578151916001600160401b03831161018b578260051b906020806101e3818501610166565b80968152019282010192831161016257602001905b8282106102055750505090565b602080916102128461019f565b8152019101906101f8565b80518210156102315760209160051b010190565b634e487b7160e01b5f52603260045260245ffd5b6001600160a01b0381165f9081525f516020611a675f395f51905f52602052604090205460ff166102b6576001600160a01b03165f8181525f516020611a675f395f51905f5260205260408120805460ff191660011790553391905f5160206119e75f395f51905f528180a4600190565b505f90565b6001600160a01b0381165f9081525f516020611a075f395f51905f52602052604090205460ff166102b6576001600160a01b03165f8181525f516020611a075f395f51905f5260205260408120805460ff191660011790553391907fb09aa5aeb3702cfd50b6b62bc4532604938f21248a27a1d5ca736082b6819cc1905f5160206119e75f395f51905f529080a4600190565b6001600160a01b0381165f9081525f516020611a475f395f51905f52602052604090205460ff166102b6576001600160a01b03165f8181525f516020611a475f395f51905f5260205260408120805460ff191660011790553391907ffd643c72710c63c0180259aba6b2d05451e3591a24e58b62239378085726f783905f5160206119e75f395f51905f529080a4600190565b6001600160a01b0381165f9081525f516020611a275f395f51905f52602052604090205460ff166102b6576001600160a01b03165f8181525f516020611a275f395f51905f5260205260408120805460ff191660011790553391907fd8aa0f3194971a2a116679f7c2090f6939c8d4e01a2a8d7e41d55e5351469e63905f5160206119e75f395f51905f529080a460019056fe6080604052600436101561001a575b3615610018575f80fd5b005b5f3560e01c806301d5062a14610b4857806301ffc9a714610ad857806307bd026514610a9e578063134008d3146109eb57806313bc9f20146109cd578063150b7a0214610978578063248a9ca31461094e5780632ab0f529146109305780632f2ff15d146108f357806331d50750146108d557806336568abe14610891578063584b153e1461086957806364d62353146108045780637958004c146107c15780638065657f146107a25780638f2a0bb01461061d5780638f61f4f5146105e357806391d148541461059b5780639f81aed71461057e578063a217fddf14610564578063b08e51c01461052a578063b1c5f42714610500578063bc197c811461046b578063c4d252f51461038d578063d45c443514610363578063d547741f1461031f578063e38335e5146101d3578063f23a6e611461017e5763f27a0c920361000e573461017a575f36600319011261017a576020600254604051908152f35b5f80fd5b3461017a5760a036600319011261017a57610197610bf3565b506101a0610c09565b506084356001600160401b03811161017a576101c0903690600401610cea565b5060405163f23a6e6160e01b8152602090f35b6101dc36610d60565b5f80527fdae2aa361dfd1ca020a396615627d436107c35eff9fe7738a3512819782d70696020527f5ba6852781629bcdcd4bdaa6de76d786f1c64b16acdac474e55bebc0ea1579515492979196919593949260ff1615610311575b828214801590610307575b6102ec5761025961026091888a888789888d61102a565b9687611343565b5f5b81811061027257610018876113ee565b8080887fc2617efa69bab66782fa219543714338489c4e9e178271560a91b82c3f612b5888886102e36102ca8f986001998f828e6102bd8f836102b8916102c396610fb1565b610fd5565b97610fb1565b3595610fe9565b906102d78282878761139b565b60405194859485610e8d565b0390a301610262565b50869063ffb0321160e01b5f5260045260245260445260645ffd5b5087821415610242565b61031a33611275565b610237565b3461017a57604036600319011261017a5761001860043561033e610c09565b9061035e610357825f525f602052600160405f20015490565b33906112fb565b611494565b3461017a57602036600319011261017a576004355f526001602052602060405f2054604051908152f35b3461017a57602036600319011261017a57335f9081527fc3ad33e20b0c56a223ad5104fff154aa010f8715b9c981fd38fdc60a4d1a52fb60205260409020546004359060ff1615610434576103e181610efb565b1561041a57805f5260016020525f60408120557fbaa1eb22f2a492ba1a5fea61b8df4d27c6c8b5f3971e63bb58fa14ff72eedb705f80a2005b635ead8eb560e01b5f52600452600460021760245260445ffd5b63e2517d3f60e01b5f52336004527ffd643c72710c63c0180259aba6b2d05451e3591a24e58b62239378085726f78360245260445ffd5b3461017a5760a036600319011261017a57610484610bf3565b5061048d610c09565b506044356001600160401b03811161017a576104ad903690600401610dce565b506064356001600160401b03811161017a576104cd903690600401610dce565b506084356001600160401b03811161017a576104ed903690600401610cea565b5060405163bc197c8160e01b8152602090f35b3461017a57602061052261051336610d60565b9695909594919493929361102a565b604051908152f35b3461017a575f36600319011261017a5760206040517ffd643c72710c63c0180259aba6b2d05451e3591a24e58b62239378085726f7838152f35b3461017a575f36600319011261017a5760206040515f8152f35b3461017a575f36600319011261017a576020604051620151808152f35b3461017a57604036600319011261017a576105b4610c09565b6004355f525f60205260405f209060018060a01b03165f52602052602060ff60405f2054166040519015158152f35b3461017a575f36600319011261017a5760206040517fb09aa5aeb3702cfd50b6b62bc4532604938f21248a27a1d5ca736082b6819cc18152f35b3461017a5760c036600319011261017a576004356001600160401b03811161017a5761064d903690600401610d30565b906024356001600160401b03811161017a5761066d903690600401610d30565b6044929192356001600160401b03811161017a5761068f903690600401610d30565b9390916064356084359560a435926106a6336111ef565b808914801590610798575b61077e576106c588848489858a8f8e61102a565b986106d0858b61117c565b895f5b828110610710575089806106e357005b60207f20fda5fd27a1ea7bf5b9567f143ac5470bb059374a27e8f67cb44f946f6d038791604051908152a2005b806001927f4cf4410cc57040e44862ef0f45f3dd5a5e02db8eb8add648d4b0e236f1d07dca8b8b6107738f8c6107668f928e61075f8f8f906107596102b88f8097948195610fb1565b99610fb1565b3597610fe9565b9060405196879687610e55565b0390a3018a906106d3565b908863ffb0321160e01b5f5260045260245260445260645ffd5b50818914156106b1565b3461017a5760206105226107b536610c4c565b94939093929192610f5c565b3461017a57602036600319011261017a576107dd600435610f24565b60405160048210156107f0576020918152f35b634e487b7160e01b5f52602160045260245ffd5b3461017a57602036600319011261017a57600435303303610856577f11c24f4ead16507c69ac467fbd5e4eed5fb5c699626d2cc6d66421df253886d560406002548151908152836020820152a1600255005b63e2850c5960e01b5f523360045260245ffd5b3461017a57602036600319011261017a576020610887600435610efb565b6040519015158152f35b3461017a57604036600319011261017a576108aa610c09565b336001600160a01b038216036108c65761001890600435611494565b63334bd91960e11b5f5260045ffd5b3461017a57602036600319011261017a576020610887600435610ee4565b3461017a57604036600319011261017a57610018600435610912610c09565b9061092b610357825f525f602052600160405f20015490565b61140c565b3461017a57602036600319011261017a576020610887600435610ecc565b3461017a57602036600319011261017a5760206105226004355f525f602052600160405f20015490565b3461017a57608036600319011261017a57610991610bf3565b5061099a610c09565b506064356001600160401b03811161017a576109ba903690600401610cea565b50604051630a85bd0160e11b8152602090f35b3461017a57602036600319011261017a576020610887600435610eb4565b610018610a7c5f610a887fc2617efa69bab66782fa219543714338489c4e9e178271560a91b82c3f612b58610a73610a2236610c4c565b7fd8aa0f3194971a2a116679f7c2090f6939c8d4e01a2a8d7e41d55e5351469e638a9995979299949394528960205260408a208a805260205260ff60408b20541615610a90575b8884848989610f5c565b98899788611343565b6102d78282878761139b565b0390a36113ee565b610a9933611275565b610a69565b3461017a575f36600319011261017a5760206040517fd8aa0f3194971a2a116679f7c2090f6939c8d4e01a2a8d7e41d55e5351469e638152f35b3461017a57602036600319011261017a5760043563ffffffff60e01b811680910361017a57602090630271189760e51b8114908115610b1d575b506040519015158152f35b637965db0b60e01b811491508115610b37575b5082610b12565b6301ffc9a760e01b14905082610b30565b3461017a5760c036600319011261017a57610b61610bf3565b602435906044356001600160401b03811161017a577f4cf4410cc57040e44862ef0f45f3dd5a5e02db8eb8add648d4b0e236f1d07dca92610ba75f923690600401610c1f565b94909160643594610be96084359660a43590610bc2336111ef565b610bd089828c8a8989610f5c565b998a97610bdd848a61117c565b60405196879687610e55565b0390a3806106e357005b600435906001600160a01b038216820361017a57565b602435906001600160a01b038216820361017a57565b9181601f8401121561017a578235916001600160401b03831161017a576020838186019501011161017a57565b60a060031982011261017a576004356001600160a01b038116810361017a579160243591604435906001600160401b03821161017a57610c8e91600401610c1f565b90916064359060843590565b90601f801991011681019081106001600160401b03821117610cbb57604052565b634e487b7160e01b5f52604160045260245ffd5b6001600160401b038111610cbb57601f01601f191660200190565b81601f8201121561017a57803590610d0182610ccf565b92610d0f6040519485610c9a565b8284526020838301011161017a57815f926020809301838601378301015290565b9181601f8401121561017a578235916001600160401b03831161017a576020808501948460051b01011161017a57565b60a060031982011261017a576004356001600160401b03811161017a5781610d8a91600401610d30565b929092916024356001600160401b03811161017a5781610dac91600401610d30565b92909291604435906001600160401b03821161017a57610c8e91600401610d30565b9080601f8301121561017a578135916001600160401b038311610cbb578260051b9060405193610e016020840186610c9a565b845260208085019282010192831161017a57602001905b828210610e255750505090565b8135815260209182019101610e18565b908060209392818452848401375f828201840152601f01601f1916010190565b929093610e83926080959897969860018060a01b03168552602085015260a0604085015260a0840191610e35565b9460608201520152565b610eb1949260609260018060a01b0316825260208201528160408201520191610e35565b90565b610ebd90610f24565b60048110156107f05760021490565b610ed590610f24565b60048110156107f05760031490565b610eed90610f24565b60048110156107f057151590565b610f0490610f24565b60048110156107f05760018114908115610f1c575090565b600291501490565b5f52600160205260405f205480155f14610f3d57505f90565b60018103610f4b5750600390565b421015610f5757600190565b600290565b94610f92610fab94959293604051968795602087019960018060a01b03168a52604087015260a0606087015260c0860191610e35565b91608084015260a083015203601f198101835282610c9a565b51902090565b9190811015610fc15760051b0190565b634e487b7160e01b5f52603260045260245ffd5b356001600160a01b038116810361017a5790565b9190811015610fc15760051b81013590601e198136030182121561017a5701908135916001600160401b03831161017a57602001823603811361017a579190565b9693949190969592956040519660208801988060c08a0160a08c525260e0890192905f905b80821061114657505050878203601f190160408901528082526001600160fb1b03811161017a579087959394929160051b8092602083013701848103606086015260208101849052600584901b8101604090810194908201915f90889036829003601e1901905b8484106110e057505050505050610fab9450608084015260a083015203601f198101835282610c9a565b91939597909294969850601f19601f198383030101875289358381121561017a57840190602082359201916001600160401b03811161017a57803603831361017a576111326020928392600195610e35565b9b0197019401918a989699979593916110b6565b91939091908435906001600160a01b038216820361017a576001600160a01b03909116815260209081019401916001019061104f565b9061118682610ee4565b6111d7576002548082106111c157504201908142116111ad575f52600160205260405f2055565b634e487b7160e01b5f52601160045260245ffd5b90635433660960e01b5f5260045260245260445ffd5b50635ead8eb560e01b5f52600452600160245260445ffd5b6001600160a01b0381165f9081527f3412d5605ac6cd444957cedb533e5dacad6378b4bc819ebe3652188a665066d5602052604090205460ff16156112315750565b63e2517d3f60e01b5f9081526001600160a01b03919091166004527fb09aa5aeb3702cfd50b6b62bc4532604938f21248a27a1d5ca736082b6819cc1602452604490fd5b6001600160a01b0381165f9081527fdae2aa361dfd1ca020a396615627d436107c35eff9fe7738a3512819782d7069602052604090205460ff16156112b75750565b63e2517d3f60e01b5f9081526001600160a01b03919091166004527fd8aa0f3194971a2a116679f7c2090f6939c8d4e01a2a8d7e41d55e5351469e63602452604490fd5b90815f525f60205260405f2060018060a01b0382165f5260205260ff60405f20541615611326575050565b63e2517d3f60e01b5f5260018060a01b031660045260245260445ffd5b61134c81610eb4565b15611384575080151580611374575b6113625750565b63121534c360e31b5f5260045260245ffd5b5061137e81610ecc565b1561135b565b635ead8eb560e01b5f52600452600460245260445ffd5b6113e3935f93928493826040519384928337810185815203925af13d156113e6573d906113c782610ccf565b916113d56040519384610c9a565b82523d5f602084013e611514565b50565b606090611514565b6113f781610eb4565b15611384575f526001602052600160405f2055565b5f818152602081815260408083206001600160a01b038616845290915290205460ff1661148e575f818152602081815260408083206001600160a01b0395909516808452949091528120805460ff19166001179055339291907f2f8788117e7eff1d82e926ec794901d17c78024a50270940304540a733656f0d9080a4600190565b50505f90565b5f818152602081815260408083206001600160a01b038616845290915290205460ff161561148e575f818152602081815260408083206001600160a01b0395909516808452949091528120805460ff19169055339291907ff6391f5c32d9c69d2a47ea670b442974b53935d1edc7fd64eb21e047a839171b9080a4600190565b90919061153a575080511561152b57805190602001fd5b63d6bda27560e01b5f5260045ffd5b56fea2646970667358221220cb0d8c91a86bf52ad1d703377b307e823704b43cb6c403cf4c7b0cef84c2330164736f6c634300082100332f8788117e7eff1d82e926ec794901d17c78024a50270940304540a733656f0d3412d5605ac6cd444957cedb533e5dacad6378b4bc819ebe3652188a665066d5dae2aa361dfd1ca020a396615627d436107c35eff9fe7738a3512819782d7069c3ad33e20b0c56a223ad5104fff154aa010f8715b9c981fd38fdc60a4d1a52fbad3228b676f7d3cd4284a5443f17f1962b36e491b30a40b2405849e597ba5fb5","linkReferences":{}},"methodIdentifiers":{"CANCELLER_ROLE()":"b08e51c0","DEFAULT_ADMIN_ROLE()":"a217fddf","EXECUTOR_ROLE()":"07bd0265","MIN_DELAY()":"9f81aed7","PROPOSER_ROLE()":"8f61f4f5","cancel(bytes32)":"c4d252f5","execute(address,uint256,bytes,bytes32,bytes32)":"134008d3","executeBatch(address[],uint256[],bytes[],bytes32,bytes32)":"e38335e5","getMinDelay()":"f27a0c92","getOperationState(bytes32)":"7958004c","getRoleAdmin(bytes32)":"248a9ca3","getTimestamp(bytes32)":"d45c4435","grantRole(bytes32,address)":"2f2ff15d","hasRole(bytes32,address)":"91d14854","hashOperation(address,uint256,bytes,bytes32,bytes32)":"8065657f","hashOperationBatch(address[],uint256[],bytes[],bytes32,bytes32)":"b1c5f427","isOperation(bytes32)":"31d50750","isOperationDone(bytes32)":"2ab0f529","isOperationPending(bytes32)":"584b153e","isOperationReady(bytes32)":"13bc9f20","onERC1155BatchReceived(address,address,uint256[],uint256[],bytes)":"bc197c81","onERC1155Received(address,address,uint256,uint256,bytes)":"f23a6e61","onERC721Received(address,address,uint256,bytes)":"150b7a02","renounceRole(bytes32,address)":"36568abe","revokeRole(bytes32,address)":"d547741f","schedule(address,uint256,bytes,bytes32,bytes32,uint256)":"01d5062a","scheduleBatch(address[],uint256[],bytes[],bytes32,bytes32,uint256)":"8f2a0bb0","supportsInterface(bytes4)":"01ffc9a7","updateDelay(uint256)":"64d62353"},"id":70}